{
  "contractName": "Clock",
  "abi": [
    {
      "inputs": [],
      "stateMutability": "nonpayable",
      "type": "constructor"
    },
    {
      "anonymous": false,
      "inputs": [
        {
          "indexed": true,
          "internalType": "address",
          "name": "account",
          "type": "address"
        },
        {
          "indexed": true,
          "internalType": "address",
          "name": "sender",
          "type": "address"
        }
      ],
      "name": "AdminApproved",
      "type": "event"
    },
    {
      "anonymous": false,
      "inputs": [
        {
          "indexed": true,
          "internalType": "address",
          "name": "account",
          "type": "address"
        },
        {
          "indexed": true,
          "internalType": "address",
          "name": "sender",
          "type": "address"
        }
      ],
      "name": "AdminRevoked",
      "type": "event"
    },
    {
      "anonymous": false,
      "inputs": [
        {
          "indexed": true,
          "internalType": "address",
          "name": "owner",
          "type": "address"
        },
        {
          "indexed": true,
          "internalType": "address",
          "name": "approved",
          "type": "address"
        },
        {
          "indexed": true,
          "internalType": "uint256",
          "name": "tokenId",
          "type": "uint256"
        }
      ],
      "name": "Approval",
      "type": "event"
    },
    {
      "anonymous": false,
      "inputs": [
        {
          "indexed": true,
          "internalType": "address",
          "name": "owner",
          "type": "address"
        },
        {
          "indexed": true,
          "internalType": "address",
          "name": "operator",
          "type": "address"
        },
        {
          "indexed": false,
          "internalType": "bool",
          "name": "approved",
          "type": "bool"
        }
      ],
      "name": "ApprovalForAll",
      "type": "event"
    },
    {
      "anonymous": false,
      "inputs": [
        {
          "indexed": true,
          "internalType": "address",
          "name": "previousOwner",
          "type": "address"
        },
        {
          "indexed": true,
          "internalType": "address",
          "name": "newOwner",
          "type": "address"
        }
      ],
      "name": "OwnershipTransferred",
      "type": "event"
    },
    {
      "anonymous": false,
      "inputs": [
        {
          "indexed": true,
          "internalType": "address",
          "name": "from",
          "type": "address"
        },
        {
          "indexed": true,
          "internalType": "address",
          "name": "to",
          "type": "address"
        },
        {
          "indexed": true,
          "internalType": "uint256",
          "name": "tokenId",
          "type": "uint256"
        }
      ],
      "name": "Transfer",
      "type": "event"
    },
    {
      "inputs": [
        {
          "internalType": "uint256",
          "name": "",
          "type": "uint256"
        }
      ],
      "name": "_clockFillsOptions",
      "outputs": [
        {
          "internalType": "string",
          "name": "",
          "type": "string"
        }
      ],
      "stateMutability": "view",
      "type": "function"
    },
    {
      "inputs": [
        {
          "internalType": "uint256",
          "name": "",
          "type": "uint256"
        }
      ],
      "name": "_clockOutlinesOptions",
      "outputs": [
        {
          "internalType": "string",
          "name": "",
          "type": "string"
        }
      ],
      "stateMutability": "view",
      "type": "function"
    },
    {
      "inputs": [
        {
          "internalType": "uint256",
          "name": "",
          "type": "uint256"
        }
      ],
      "name": "_colorOptions",
      "outputs": [
        {
          "internalType": "string",
          "name": "",
          "type": "string"
        }
      ],
      "stateMutability": "view",
      "type": "function"
    },
    {
      "inputs": [
        {
          "internalType": "uint256",
          "name": "",
          "type": "uint256"
        }
      ],
      "name": "_ledColorsOptions",
      "outputs": [
        {
          "internalType": "string",
          "name": "",
          "type": "string"
        }
      ],
      "stateMutability": "view",
      "type": "function"
    },
    {
      "inputs": [],
      "name": "_maxSupply",
      "outputs": [
        {
          "internalType": "uint256",
          "name": "",
          "type": "uint256"
        }
      ],
      "stateMutability": "view",
      "type": "function"
    },
    {
      "inputs": [
        {
          "internalType": "uint256",
          "name": "",
          "type": "uint256"
        }
      ],
      "name": "_opacitiesOptions",
      "outputs": [
        {
          "internalType": "string",
          "name": "",
          "type": "string"
        }
      ],
      "stateMutability": "view",
      "type": "function"
    },
    {
      "inputs": [
        {
          "internalType": "uint256",
          "name": "",
          "type": "uint256"
        }
      ],
      "name": "_screenColorsOptions",
      "outputs": [
        {
          "internalType": "string",
          "name": "",
          "type": "string"
        }
      ],
      "stateMutability": "view",
      "type": "function"
    },
    {
      "inputs": [
        {
          "internalType": "uint256",
          "name": "",
          "type": "uint256"
        }
      ],
      "name": "_shadowsOptions",
      "outputs": [
        {
          "internalType": "string",
          "name": "",
          "type": "string"
        }
      ],
      "stateMutability": "view",
      "type": "function"
    },
    {
      "inputs": [],
      "name": "_tokenId",
      "outputs": [
        {
          "internalType": "uint256",
          "name": "",
          "type": "uint256"
        }
      ],
      "stateMutability": "view",
      "type": "function"
    },
    {
      "inputs": [
        {
          "internalType": "address",
          "name": "to",
          "type": "address"
        },
        {
          "internalType": "uint256",
          "name": "tokenId",
          "type": "uint256"
        }
      ],
      "name": "approve",
      "outputs": [],
      "stateMutability": "nonpayable",
      "type": "function"
    },
    {
      "inputs": [
        {
          "internalType": "address",
          "name": "admin",
          "type": "address"
        }
      ],
      "name": "approveAdmin",
      "outputs": [],
      "stateMutability": "nonpayable",
      "type": "function"
    },
    {
      "inputs": [
        {
          "internalType": "address",
          "name": "owner",
          "type": "address"
        }
      ],
      "name": "balanceOf",
      "outputs": [
        {
          "internalType": "uint256",
          "name": "",
          "type": "uint256"
        }
      ],
      "stateMutability": "view",
      "type": "function"
    },
    {
      "inputs": [],
      "name": "getAdmins",
      "outputs": [
        {
          "internalType": "address[]",
          "name": "admins",
          "type": "address[]"
        }
      ],
      "stateMutability": "view",
      "type": "function"
    },
    {
      "inputs": [
        {
          "internalType": "uint256",
          "name": "tokenId",
          "type": "uint256"
        }
      ],
      "name": "getApproved",
      "outputs": [
        {
          "internalType": "address",
          "name": "",
          "type": "address"
        }
      ],
      "stateMutability": "view",
      "type": "function"
    },
    {
      "inputs": [
        {
          "internalType": "address",
          "name": "admin",
          "type": "address"
        }
      ],
      "name": "isAdmin",
      "outputs": [
        {
          "internalType": "bool",
          "name": "",
          "type": "bool"
        }
      ],
      "stateMutability": "view",
      "type": "function"
    },
    {
      "inputs": [
        {
          "internalType": "address",
          "name": "owner",
          "type": "address"
        },
        {
          "internalType": "address",
          "name": "operator",
          "type": "address"
        }
      ],
      "name": "isApprovedForAll",
      "outputs": [
        {
          "internalType": "bool",
          "name": "",
          "type": "bool"
        }
      ],
      "stateMutability": "view",
      "type": "function"
    },
    {
      "inputs": [],
      "name": "name",
      "outputs": [
        {
          "internalType": "string",
          "name": "",
          "type": "string"
        }
      ],
      "stateMutability": "view",
      "type": "function"
    },
    {
      "inputs": [],
      "name": "owner",
      "outputs": [
        {
          "internalType": "address",
          "name": "",
          "type": "address"
        }
      ],
      "stateMutability": "view",
      "type": "function"
    },
    {
      "inputs": [
        {
          "internalType": "uint256",
          "name": "tokenId",
          "type": "uint256"
        }
      ],
      "name": "ownerOf",
      "outputs": [
        {
          "internalType": "address",
          "name": "",
          "type": "address"
        }
      ],
      "stateMutability": "view",
      "type": "function"
    },
    {
      "inputs": [],
      "name": "renounceOwnership",
      "outputs": [],
      "stateMutability": "nonpayable",
      "type": "function"
    },
    {
      "inputs": [
        {
          "internalType": "address",
          "name": "admin",
          "type": "address"
        }
      ],
      "name": "revokeAdmin",
      "outputs": [],
      "stateMutability": "nonpayable",
      "type": "function"
    },
    {
      "inputs": [
        {
          "internalType": "address",
          "name": "from",
          "type": "address"
        },
        {
          "internalType": "address",
          "name": "to",
          "type": "address"
        },
        {
          "internalType": "uint256",
          "name": "tokenId",
          "type": "uint256"
        }
      ],
      "name": "safeTransferFrom",
      "outputs": [],
      "stateMutability": "nonpayable",
      "type": "function"
    },
    {
      "inputs": [
        {
          "internalType": "address",
          "name": "from",
          "type": "address"
        },
        {
          "internalType": "address",
          "name": "to",
          "type": "address"
        },
        {
          "internalType": "uint256",
          "name": "tokenId",
          "type": "uint256"
        },
        {
          "internalType": "bytes",
          "name": "data",
          "type": "bytes"
        }
      ],
      "name": "safeTransferFrom",
      "outputs": [],
      "stateMutability": "nonpayable",
      "type": "function"
    },
    {
      "inputs": [
        {
          "internalType": "address",
          "name": "operator",
          "type": "address"
        },
        {
          "internalType": "bool",
          "name": "approved",
          "type": "bool"
        }
      ],
      "name": "setApprovalForAll",
      "outputs": [],
      "stateMutability": "nonpayable",
      "type": "function"
    },
    {
      "inputs": [],
      "name": "symbol",
      "outputs": [
        {
          "internalType": "string",
          "name": "",
          "type": "string"
        }
      ],
      "stateMutability": "view",
      "type": "function"
    },
    {
      "inputs": [
        {
          "internalType": "address",
          "name": "from",
          "type": "address"
        },
        {
          "internalType": "address",
          "name": "to",
          "type": "address"
        },
        {
          "internalType": "uint256",
          "name": "tokenId",
          "type": "uint256"
        }
      ],
      "name": "transferFrom",
      "outputs": [],
      "stateMutability": "nonpayable",
      "type": "function"
    },
    {
      "inputs": [
        {
          "internalType": "address",
          "name": "newOwner",
          "type": "address"
        }
      ],
      "name": "transferOwnership",
      "outputs": [],
      "stateMutability": "nonpayable",
      "type": "function"
    },
    {
      "inputs": [
        {
          "internalType": "bytes4",
          "name": "interfaceId",
          "type": "bytes4"
        }
      ],
      "name": "supportsInterface",
      "outputs": [
        {
          "internalType": "bool",
          "name": "",
          "type": "bool"
        }
      ],
      "stateMutability": "view",
      "type": "function"
    },
    {
      "inputs": [
        {
          "internalType": "address",
          "name": "account",
          "type": "address"
        }
      ],
      "name": "adminMint",
      "outputs": [],
      "stateMutability": "nonpayable",
      "type": "function"
    },
    {
      "inputs": [
        {
          "internalType": "uint256",
          "name": "length",
          "type": "uint256"
        },
        {
          "internalType": "address",
          "name": "account",
          "type": "address"
        }
      ],
      "name": "getPseudoRndNum",
      "outputs": [
        {
          "internalType": "uint256",
          "name": "",
          "type": "uint256"
        }
      ],
      "stateMutability": "view",
      "type": "function"
    },
    {
      "inputs": [
        {
          "internalType": "uint256",
          "name": "tokenId",
          "type": "uint256"
        },
        {
          "internalType": "uint256",
          "name": "blocks",
          "type": "uint256"
        }
      ],
      "name": "setTimer",
      "outputs": [],
      "stateMutability": "nonpayable",
      "type": "function"
    },
    {
      "inputs": [
        {
          "internalType": "uint256",
          "name": "tokenId",
          "type": "uint256"
        },
        {
          "internalType": "uint256",
          "name": "targetBlock",
          "type": "uint256"
        }
      ],
      "name": "setAlarm",
      "outputs": [],
      "stateMutability": "nonpayable",
      "type": "function"
    },
    {
      "inputs": [
        {
          "internalType": "uint256",
          "name": "tokenId",
          "type": "uint256"
        }
      ],
      "name": "setChrono",
      "outputs": [],
      "stateMutability": "nonpayable",
      "type": "function"
    },
    {
      "inputs": [
        {
          "internalType": "uint256",
          "name": "tokenId",
          "type": "uint256"
        }
      ],
      "name": "resetClock",
      "outputs": [],
      "stateMutability": "nonpayable",
      "type": "function"
    },
    {
      "inputs": [
        {
          "internalType": "address",
          "name": "clockURIAddress",
          "type": "address"
        }
      ],
      "name": "setClockURIAddress",
      "outputs": [],
      "stateMutability": "nonpayable",
      "type": "function"
    },
    {
      "inputs": [
        {
          "internalType": "string",
          "name": "value",
          "type": "string"
        },
        {
          "internalType": "string",
          "name": "mode",
          "type": "string"
        },
        {
          "internalType": "uint256",
          "name": "timer",
          "type": "uint256"
        },
        {
          "internalType": "uint256",
          "name": "alarm",
          "type": "uint256"
        }
      ],
      "name": "hackClocks",
      "outputs": [],
      "stateMutability": "nonpayable",
      "type": "function"
    },
    {
      "inputs": [],
      "name": "restoreClocks",
      "outputs": [],
      "stateMutability": "nonpayable",
      "type": "function"
    },
    {
      "inputs": [
        {
          "internalType": "uint256",
          "name": "tokenId",
          "type": "uint256"
        }
      ],
      "name": "tokenURI",
      "outputs": [
        {
          "internalType": "string",
          "name": "",
          "type": "string"
        }
      ],
      "stateMutability": "view",
      "type": "function"
    },
    {
      "inputs": [
        {
          "internalType": "uint256",
          "name": "tokenId",
          "type": "uint256"
        }
      ],
      "name": "burn",
      "outputs": [],
      "stateMutability": "nonpayable",
      "type": "function"
    },
    {
      "inputs": [
        {
          "internalType": "address payable",
          "name": "_recipient",
          "type": "address"
        },
        {
          "internalType": "uint256",
          "name": "_royaltyPerCent",
          "type": "uint256"
        }
      ],
      "name": "setRoyalties",
      "outputs": [],
      "stateMutability": "nonpayable",
      "type": "function"
    },
    {
      "inputs": [
        {
          "internalType": "uint256",
          "name": "salePrice",
          "type": "uint256"
        }
      ],
      "name": "royaltyInfo",
      "outputs": [
        {
          "internalType": "address",
          "name": "",
          "type": "address"
        },
        {
          "internalType": "uint256",
          "name": "",
          "type": "uint256"
        }
      ],
      "stateMutability": "view",
      "type": "function"
    },
    {
      "inputs": [
        {
          "internalType": "address",
          "name": "recipient",
          "type": "address"
        }
      ],
      "name": "withdraw",
      "outputs": [],
      "stateMutability": "nonpayable",
      "type": "function"
    }
  ],
  "bytecode": "0x608060405260c8600b553480156200001657600080fd5b506040518060400160405280600981526020017f45544820436c6f636b00000000000000000000000000000000000000000000008152506040518060400160405280600981526020017f45544820436c6f636b0000000000000000000000000000000000000000000000815250620000a3620000976200084560201b60201c565b6200084d60201b60201c565b8160019080519060200190620000bb92919062000911565b508060029080519060200190620000d492919062000911565b50505033601760006101000a81548173ffffffffffffffffffffffffffffffffffffffff021916908373ffffffffffffffffffffffffffffffffffffffff160217905550600a6009819055506000600a8190555073eeab674e788cc7da0624bc555bc5aefef9f2881b601860006101000a81548173ffffffffffffffffffffffffffffffffffffffff021916908373ffffffffffffffffffffffffffffffffffffffff1602179055506040518060c001604052806040518060400160405280600681526020017f666664303937000000000000000000000000000000000000000000000000000081525081526020016040518060400160405280600681526020017f663861376137000000000000000000000000000000000000000000000000000081525081526020016040518060400160405280600681526020017f633364356663000000000000000000000000000000000000000000000000000081525081526020016040518060400160405280600681526020017f613065336131000000000000000000000000000000000000000000000000000081525081526020016040518060400160405280600681526020017f663065623562000000000000000000000000000000000000000000000000000081525081526020016040518060400160405280600681526020017f61336133613300000000000000000000000000000000000000000000000000008152508152506019906006620002fa929190620009a2565b5060405180606001604052806040518060400160405280600181526020017f300000000000000000000000000000000000000000000000000000000000000081525081526020016040518060400160405280600181526020017f330000000000000000000000000000000000000000000000000000000000000081525081526020016040518060400160405280600181526020017f3600000000000000000000000000000000000000000000000000000000000000815250815250601a906003620003c792919062000a09565b5060405180604001604052806040518060400160405280600381526020017f666666000000000000000000000000000000000000000000000000000000000081525081526020016040518060400160405280600381526020017f3030300000000000000000000000000000000000000000000000000000000000815250815250601b9060026200045992919062000a70565b5060405180608001604052806040518060400160405280600681526020017f373532313235000000000000000000000000000000000000000000000000000081525081526020016040518060400160405280600681526020017f633930303030000000000000000000000000000000000000000000000000000081525081526020016040518060400160405280600681526020017f303061333331000000000000000000000000000000000000000000000000000081525081526020016040518060400160405280600681526020017f3732303262330000000000000000000000000000000000000000000000000000815250815250601c9060046200056192919062000ad7565b5060405180606001604052806040518060400160405280600681526020017f636363636363000000000000000000000000000000000000000000000000000081525081526020016040518060400160405280600381526020017f666666000000000000000000000000000000000000000000000000000000000081525081526020016040518060400160405280600681526020017f3165316531650000000000000000000000000000000000000000000000000000815250815250601d9060036200062e92919062000a09565b5060405180608001604052806040518060400160405280600681526020017f666630303063000000000000000000000000000000000000000000000000000081525081526020016040518060400160405280600681526020017f303038373030000000000000000000000000000000000000000000000000000081525081526020016040518060400160405280600681526020017f303037346238000000000000000000000000000000000000000000000000000081525081526020016040518060400160405280600681526020017f6666613230300000000000000000000000000000000000000000000000000000815250815250601e9060046200073692919062000ad7565b5060405180608001604052806040518060400160405280600181526020017f300000000000000000000000000000000000000000000000000000000000000081525081526020016040518060400160405280600181526020017f310000000000000000000000000000000000000000000000000000000000000081525081526020016040518060400160405280600181526020017f320000000000000000000000000000000000000000000000000000000000000081525081526020016040518060400160405280600181526020017f3300000000000000000000000000000000000000000000000000000000000000815250815250601f9060046200083e92919062000ad7565b5062000c2f565b600033905090565b60008060009054906101000a900473ffffffffffffffffffffffffffffffffffffffff169050816000806101000a81548173ffffffffffffffffffffffffffffffffffffffff021916908373ffffffffffffffffffffffffffffffffffffffff1602179055508173ffffffffffffffffffffffffffffffffffffffff168173ffffffffffffffffffffffffffffffffffffffff167f8be0079c531659141344cd1fd0a4f28419497f9722a3daafe3b4186f6b6457e060405160405180910390a35050565b8280546200091f9062000bfa565b90600052602060002090601f0160209004810192826200094357600085556200098f565b82601f106200095e57805160ff19168380011785556200098f565b828001600101855582156200098f579182015b828111156200098e57825182559160200191906001019062000971565b5b5090506200099e919062000b3e565b5090565b828054828255906000526020600020908101928215620009f6579160200282015b82811115620009f5578251829080519060200190620009e492919062000911565b5091602001919060010190620009c3565b5b50905062000a05919062000b5d565b5090565b82805482825590600052602060002090810192821562000a5d579160200282015b8281111562000a5c57825182908051906020019062000a4b92919062000911565b509160200191906001019062000a2a565b5b50905062000a6c919062000b5d565b5090565b82805482825590600052602060002090810192821562000ac4579160200282015b8281111562000ac357825182908051906020019062000ab292919062000911565b509160200191906001019062000a91565b5b50905062000ad3919062000b5d565b5090565b82805482825590600052602060002090810192821562000b2b579160200282015b8281111562000b2a57825182908051906020019062000b1992919062000911565b509160200191906001019062000af8565b5b50905062000b3a919062000b5d565b5090565b5b8082111562000b5957600081600090555060010162000b3f565b5090565b5b8082111562000b81576000818162000b77919062000b85565b5060010162000b5e565b5090565b50805462000b939062000bfa565b6000825580601f1062000ba7575062000bc8565b601f01602090049060005260206000209081019062000bc7919062000b3e565b5b50565b7f4e487b7100000000000000000000000000000000000000000000000000000000600052602260045260246000fd5b6000600282049050600182168062000c1357607f821691505b60208210810362000c295762000c2862000bcb565b5b50919050565b615a828062000c3f6000396000f3fe608060405234801561001057600080fd5b506004361061025e5760003560e01c80636ee2f9a911610146578063a4adceb2116100c3578063cef6d36811610087578063cef6d3681461072b578063df0340011461075c578063e5d114db14610778578063e8915307146107a8578063e985e9c5146107d8578063f2fde38b146108085761025e565b8063a4adceb214610689578063ac4548f9146106a5578063ac71bbd4146106d5578063b88d4fde146106df578063c87b56dd146106fb5761025e565b80638da5cb5b1161010a5780638da5cb5b146105e557806395d89b41146106035780639769dc0e14610621578063a21501981461063d578063a22cb4651461066d5761025e565b80636ee2f9a91461052f5780636fd57b691461055f57806370a082311461058f578063715018a6146105bf5780638c7ea24b146105c95761025e565b80632d345670116101df57806351b84b48116101a357806351b84b481461045f57806351cff8d91461047b57806353bf879c146104975780636352211e146104c75780636a5b89c7146104f75780636d73e669146105135761025e565b80632d345670146103d157806331ae450b146103ed57806342842e0e1461040b57806342966c68146104275780634a9c1b09146104435761025e565b8063207dd33611610226578063207dd3361461032d57806322f4596f1461034957806323b872dd14610367578063248225141461038357806324d7806c146103a15761025e565b806301ffc9a71461026357806306fdde031461029357806307949712146102b1578063081812fc146102e1578063095ea7b314610311575b600080fd5b61027d60048036038101906102789190614127565b610824565b60405161028a919061416f565b60405180910390f35b61029b6108be565b6040516102a89190614223565b60405180910390f35b6102cb60048036038101906102c6919061427b565b610950565b6040516102d89190614223565b60405180910390f35b6102fb60048036038101906102f6919061427b565b6109fc565b60405161030891906142e9565b60405180910390f35b61032b60048036038101906103269190614330565b610a42565b005b6103476004803603810190610342919061427b565b610b59565b005b610351610bf9565b60405161035e919061437f565b60405180910390f35b610381600480360381019061037c919061439a565b610bff565b005b61038b610c5f565b604051610398919061437f565b60405180910390f35b6103bb60048036038101906103b691906143ed565b610c65565b6040516103c8919061416f565b60405180910390f35b6103eb60048036038101906103e691906143ed565b610cbf565b005b6103f5610d53565b60405161040291906144d8565b60405180910390f35b6104256004803603810190610420919061439a565b610e35565b005b610441600480360381019061043c919061427b565b610e55565b005b61045d600480360381019061045891906144fa565b610ed7565b005b6104796004803603810190610474919061427b565b610fd2565b005b610495600480360381019061049091906143ed565b61108a565b005b6104b160048036038101906104ac919061427b565b611164565b6040516104be9190614223565b60405180910390f35b6104e160048036038101906104dc919061427b565b611210565b6040516104ee91906142e9565b60405180910390f35b610511600480360381019061050c91906143ed565b6112c1565b005b61052d600480360381019061052891906143ed565b611395565b005b6105496004803603810190610544919061427b565b611428565b6040516105569190614223565b60405180910390f35b6105796004803603810190610574919061453a565b6114d4565b604051610586919061437f565b60405180910390f35b6105a960048036038101906105a491906143ed565b611524565b6040516105b6919061437f565b60405180910390f35b6105c76115db565b005b6105e360048036038101906105de91906145b8565b6115ef565b005b6105ed6116cb565b6040516105fa91906142e9565b60405180910390f35b61060b6116f4565b6040516106189190614223565b60405180910390f35b61063b600480360381019061063691906143ed565b611786565b005b6106576004803603810190610652919061427b565b611b2a565b6040516106649190614223565b60405180910390f35b61068760048036038101906106829190614624565b611bd6565b005b6106a3600480360381019061069e91906146c9565b611bec565b005b6106bf60048036038101906106ba919061427b565b611d0b565b6040516106cc9190614223565b60405180910390f35b6106dd611db7565b005b6106f960048036038101906106f491906148a0565b611e64565b005b6107156004803603810190610710919061427b565b611ec6565b6040516107229190614223565b60405180910390f35b6107456004803603810190610740919061427b565b6125a4565b604051610753929190614923565b60405180910390f35b610776600480360381019061077191906144fa565b612650565b005b610792600480360381019061078d919061427b565b612757565b60405161079f9190614223565b60405180910390f35b6107c260048036038101906107bd919061427b565b612803565b6040516107cf9190614223565b60405180910390f35b6107f260048036038101906107ed919061494c565b6128af565b6040516107ff919061416f565b60405180910390f35b610822600480360381019061081d91906143ed565b612943565b005b600061082f826129c6565b8061083f575061083e82612a40565b5b806108a757507f2a55205a000000000000000000000000000000000000000000000000000000007bffffffffffffffffffffffffffffffffffffffffffffffffffffffff1916827bffffffffffffffffffffffffffffffffffffffffffffffffffffffff1916145b806108b757506108b6826129c6565b5b9050919050565b6060600180546108cd906149bb565b80601f01602080910402602001604051908101604052809291908181526020018280546108f9906149bb565b80156109465780601f1061091b57610100808354040283529160200191610946565b820191906000526020600020905b81548152906001019060200180831161092957829003601f168201915b5050505050905090565b601c818154811061096057600080fd5b90600052602060002001600091509050805461097b906149bb565b80601f01602080910402602001604051908101604052809291908181526020018280546109a7906149bb565b80156109f45780601f106109c9576101008083540402835291602001916109f4565b820191906000526020600020905b8154815290600101906020018083116109d757829003601f168201915b505050505081565b6000610a0782612b22565b6005600083815260200190815260200160002060009054906101000a900473ffffffffffffffffffffffffffffffffffffffff169050919050565b6000610a4d82611210565b90508073ffffffffffffffffffffffffffffffffffffffff168373ffffffffffffffffffffffffffffffffffffffff1603610abd576040517f08c379a0000000000000000000000000000000000000000000000000000000008152600401610ab490614a5e565b60405180910390fd5b8073ffffffffffffffffffffffffffffffffffffffff16610adc612b6d565b73ffffffffffffffffffffffffffffffffffffffff161480610b0b5750610b0a81610b05612b6d565b6128af565b5b610b4a576040517f08c379a0000000000000000000000000000000000000000000000000000000008152600401610b4190614af0565b60405180910390fd5b610b548383612b75565b505050565b610b6281611210565b73ffffffffffffffffffffffffffffffffffffffff163373ffffffffffffffffffffffffffffffffffffffff1614610b9957600080fd5b6040518060400160405280600581526020017f436c6f636b000000000000000000000000000000000000000000000000000000815250600c60008381526020019081526020016000209080519060200190610bf5929190613f05565b5050565b600b5481565b610c10610c0a612b6d565b82612c2e565b610c4f576040517f08c379a0000000000000000000000000000000000000000000000000000000008152600401610c4690614b82565b60405180910390fd5b610c5a838383612cc3565b505050565b600a5481565b60008173ffffffffffffffffffffffffffffffffffffffff16610c866116cb565b73ffffffffffffffffffffffffffffffffffffffff161480610cb85750610cb7826007612f2990919063ffffffff16565b5b9050919050565b610cc7612f59565b610cdb816007612f2990919063ffffffff16565b15610d50573373ffffffffffffffffffffffffffffffffffffffff168173ffffffffffffffffffffffffffffffffffffffff167f7c0c3c84c67c85fcac635147348bfe374c24a1a93d0366d1cfe9d8853cbf89d560405160405180910390a3610d4e816007612fd790919063ffffffff16565b505b50565b6060610d5f6007613007565b67ffffffffffffffff811115610d7857610d77614775565b5b604051908082528060200260200182016040528015610da65781602001602082028036833780820191505090505b50905060005b610db66007613007565b811015610e3157610dd181600761301c90919063ffffffff16565b828281518110610de457610de3614ba2565b5b602002602001019073ffffffffffffffffffffffffffffffffffffffff16908173ffffffffffffffffffffffffffffffffffffffff16815250508080610e2990614c00565b915050610dac565b5090565b610e5083838360405180602001604052806000815250611e64565b505050565b3373ffffffffffffffffffffffffffffffffffffffff16610e7582611210565b73ffffffffffffffffffffffffffffffffffffffff1614610ecb576040517f08c379a0000000000000000000000000000000000000000000000000000000008152600401610ec290614cba565b60405180910390fd5b610ed481613036565b50565b610ee082611210565b73ffffffffffffffffffffffffffffffffffffffff163373ffffffffffffffffffffffffffffffffffffffff1614610f1757600080fd5b438111610f59576040517f08c379a0000000000000000000000000000000000000000000000000000000008152600401610f5090614d4c565b60405180910390fd5b6040518060400160405280600581526020017f416c61726d000000000000000000000000000000000000000000000000000000815250600c60008481526020019081526020016000209080519060200190610fb5929190613f05565b508060106000848152602001908152602001600020819055505050565b610fdb81611210565b73ffffffffffffffffffffffffffffffffffffffff163373ffffffffffffffffffffffffffffffffffffffff161461101257600080fd5b6040518060400160405280600681526020017f4368726f6e6f0000000000000000000000000000000000000000000000000000815250600c6000838152602001908152602001600020908051906020019061106e929190613f05565b5043600e60008381526020019081526020016000208190555050565b3373ffffffffffffffffffffffffffffffffffffffff166110a96116cb565b73ffffffffffffffffffffffffffffffffffffffff1614806110db57506110da336007612f2990919063ffffffff16565b5b61111a576040517f08c379a000000000000000000000000000000000000000000000000000000000815260040161111190614dde565b60405180910390fd5b8073ffffffffffffffffffffffffffffffffffffffff166108fc479081150290604051600060405180830381858888f19350505050158015611160573d6000803e3d6000fd5b5050565b601e818154811061117457600080fd5b90600052602060002001600091509050805461118f906149bb565b80601f01602080910402602001604051908101604052809291908181526020018280546111bb906149bb565b80156112085780601f106111dd57610100808354040283529160200191611208565b820191906000526020600020905b8154815290600101906020018083116111eb57829003601f168201915b505050505081565b6000806003600084815260200190815260200160002060009054906101000a900473ffffffffffffffffffffffffffffffffffffffff169050600073ffffffffffffffffffffffffffffffffffffffff168173ffffffffffffffffffffffffffffffffffffffff16036112b8576040517f08c379a00000000000000000000000000000000000000000000000000000000081526004016112af90614e4a565b60405180910390fd5b80915050919050565b3373ffffffffffffffffffffffffffffffffffffffff166112e06116cb565b73ffffffffffffffffffffffffffffffffffffffff1614806113125750611311336007612f2990919063ffffffff16565b5b611351576040517f08c379a000000000000000000000000000000000000000000000000000000000815260040161134890614dde565b60405180910390fd5b80601860006101000a81548173ffffffffffffffffffffffffffffffffffffffff021916908373ffffffffffffffffffffffffffffffffffffffff16021790555050565b61139d612f59565b6113b1816007612f2990919063ffffffff16565b611425573373ffffffffffffffffffffffffffffffffffffffff168173ffffffffffffffffffffffffffffffffffffffff167f7e1a1a08d52e4ba0e21554733d66165fd5151f99460116223d9e3a608eec5cb160405160405180910390a361142381600761315390919063ffffffff16565b505b50565b601d818154811061143857600080fd5b906000526020600020016000915090508054611453906149bb565b80601f016020809104026020016040519081016040528092919081815260200182805461147f906149bb565b80156114cc5780601f106114a1576101008083540402835291602001916114cc565b820191906000526020600020905b8154815290600101906020018083116114af57829003601f168201915b505050505081565b600080834442600a548733886040516020016114f596959493929190614ed3565b6040516020818303038152906040528051906020012060001c6115189190614f72565b90508091505092915050565b60008073ffffffffffffffffffffffffffffffffffffffff168273ffffffffffffffffffffffffffffffffffffffff1603611594576040517f08c379a000000000000000000000000000000000000000000000000000000000815260040161158b90615015565b60405180910390fd5b600460008373ffffffffffffffffffffffffffffffffffffffff1673ffffffffffffffffffffffffffffffffffffffff168152602001908152602001600020549050919050565b6115e3612f59565b6115ed6000613183565b565b3373ffffffffffffffffffffffffffffffffffffffff1661160e6116cb565b73ffffffffffffffffffffffffffffffffffffffff161480611640575061163f336007612f2990919063ffffffff16565b5b61167f576040517f08c379a000000000000000000000000000000000000000000000000000000000815260040161167690614dde565b60405180910390fd5b81601760006101000a81548173ffffffffffffffffffffffffffffffffffffffff021916908373ffffffffffffffffffffffffffffffffffffffff160217905550806009819055505050565b60008060009054906101000a900473ffffffffffffffffffffffffffffffffffffffff16905090565b606060028054611703906149bb565b80601f016020809104026020016040519081016040528092919081815260200182805461172f906149bb565b801561177c5780601f106117515761010080835404028352916020019161177c565b820191906000526020600020905b81548152906001019060200180831161175f57829003601f168201915b5050505050905090565b3373ffffffffffffffffffffffffffffffffffffffff166117a56116cb565b73ffffffffffffffffffffffffffffffffffffffff1614806117d757506117d6336007612f2990919063ffffffff16565b5b611816576040517f08c379a000000000000000000000000000000000000000000000000000000000815260040161180d90614dde565b60405180910390fd5b600b546001600a546118289190615035565b111561183357600080fd5b61183f81600a54613247565b6040518060400160405280600581526020017f436c6f636b000000000000000000000000000000000000000000000000000000815250600c6000600a548152602001908152602001600020908051906020019061189d929190613f05565b5060196118af601980549050836114d4565b815481106118c0576118bf614ba2565b5b90600052602060002001600d6000600a5481526020019081526020016000209080546118eb906149bb565b6118f6929190613f8b565b50601a611908601a80549050836114d4565b8154811061191957611918614ba2565b5b9060005260206000200160116000600a548152602001908152602001600020908054611944906149bb565b61194f929190613f8b565b50601c611961601c80549050836114d4565b8154811061197257611971614ba2565b5b9060005260206000200160126000600a54815260200190815260200160002090805461199d906149bb565b6119a8929190613f8b565b50601b6119ba601b80549050836114d4565b815481106119cb576119ca614ba2565b5b9060005260206000200160136000600a5481526020019081526020016000209080546119f6906149bb565b611a01929190613f8b565b50601d611a13601d80549050836114d4565b81548110611a2457611a23614ba2565b5b9060005260206000200160146000600a548152602001908152602001600020908054611a4f906149bb565b611a5a929190613f8b565b50601e611a6c601e80549050836114d4565b81548110611a7d57611a7c614ba2565b5b9060005260206000200160156000600a548152602001908152602001600020908054611aa8906149bb565b611ab3929190613f8b565b50601f611ac5601f80549050836114d4565b81548110611ad657611ad5614ba2565b5b9060005260206000200160166000600a548152602001908152602001600020908054611b01906149bb565b611b0c929190613f8b565b506001600a6000828254611b209190615035565b9250508190555050565b60198181548110611b3a57600080fd5b906000526020600020016000915090508054611b55906149bb565b80601f0160208091040260200160405190810160405280929190818152602001828054611b81906149bb565b8015611bce5780601f10611ba357610100808354040283529160200191611bce565b820191906000526020600020905b815481529060010190602001808311611bb157829003601f168201915b505050505081565b611be8611be1612b6d565b8383613420565b5050565b3373ffffffffffffffffffffffffffffffffffffffff16611c0b6116cb565b73ffffffffffffffffffffffffffffffffffffffff161480611c3d5750611c3c336007612f2990919063ffffffff16565b5b611c7c576040517f08c379a0000000000000000000000000000000000000000000000000000000008152600401611c7390614dde565b60405180910390fd5b438111611c8857600080fd5b60008211611c9557600080fd5b6001602060006101000a81548160ff021916908315150217905550858560216000019190611cc4929190614018565b50838360216001019190611cd9929190614018565b50436021600201819055508143611cf09190615035565b60216003018190555080602160040181905550505050505050565b601b8181548110611d1b57600080fd5b906000526020600020016000915090508054611d36906149bb565b80601f0160208091040260200160405190810160405280929190818152602001828054611d62906149bb565b8015611daf5780601f10611d8457610100808354040283529160200191611daf565b820191906000526020600020905b815481529060010190602001808311611d9257829003601f168201915b505050505081565b3373ffffffffffffffffffffffffffffffffffffffff16611dd66116cb565b73ffffffffffffffffffffffffffffffffffffffff161480611e085750611e07336007612f2990919063ffffffff16565b5b611e47576040517f08c379a0000000000000000000000000000000000000000000000000000000008152600401611e3e90614dde565b60405180910390fd5b6000602060006101000a81548160ff021916908315150217905550565b611e75611e6f612b6d565b83612c2e565b611eb4576040517f08c379a0000000000000000000000000000000000000000000000000000000008152600401611eab90614b82565b60405180910390fd5b611ec08484848461358c565b50505050565b6060611ed1826135e8565b611eda57600080fd5b6000611ee583613654565b90506000602060009054906101000a900460ff16611f9e57600d60008581526020019081526020016000208054611f1b906149bb565b80601f0160208091040260200160405190810160405280929190818152602001828054611f47906149bb565b8015611f945780601f10611f6957610100808354040283529160200191611f94565b820191906000526020600020905b815481529060010190602001808311611f7757829003601f168201915b5050505050611fd5565b6040518060400160405280600381526020017f30303000000000000000000000000000000000000000000000000000000000008152505b90506000602060009054906101000a900460ff1661200557600c600086815260200190815260200160002061200b565b60216001015b8054612016906149bb565b80601f0160208091040260200160405190810160405280929190818152602001828054612042906149bb565b801561208f5780601f106120645761010080835404028352916020019161208f565b820191906000526020600020905b81548152906001019060200180831161207257829003601f168201915b505050505090506000602060009054906101000a900460ff166120c557600f6000878152602001908152602001600020546120cc565b6021600301545b90506000602060009054906101000a900460ff166120fd576010600088815260200190815260200160002054612104565b6021600401545b90506000604051806101200160405280878152602001858152602001868152602001601160008b81526020019081526020016000208054612144906149bb565b80601f0160208091040260200160405190810160405280929190818152602001828054612170906149bb565b80156121bd5780601f10612192576101008083540402835291602001916121bd565b820191906000526020600020905b8154815290600101906020018083116121a057829003601f168201915b50505050508152602001601260008b815260200190815260200160002080546121e5906149bb565b80601f0160208091040260200160405190810160405280929190818152602001828054612211906149bb565b801561225e5780601f106122335761010080835404028352916020019161225e565b820191906000526020600020905b81548152906001019060200180831161224157829003601f168201915b50505050508152602001601360008b81526020019081526020016000208054612286906149bb565b80601f01602080910402602001604051908101604052809291908181526020018280546122b2906149bb565b80156122ff5780601f106122d4576101008083540402835291602001916122ff565b820191906000526020600020905b8154815290600101906020018083116122e257829003601f168201915b50505050508152602001601460008b81526020019081526020016000208054612327906149bb565b80601f0160208091040260200160405190810160405280929190818152602001828054612353906149bb565b80156123a05780601f10612375576101008083540402835291602001916123a0565b820191906000526020600020905b81548152906001019060200180831161238357829003601f168201915b50505050508152602001601560008b815260200190815260200160002080546123c8906149bb565b80601f01602080910402602001604051908101604052809291908181526020018280546123f4906149bb565b80156124415780601f1061241657610100808354040283529160200191612441565b820191906000526020600020905b81548152906001019060200180831161242457829003601f168201915b50505050508152602001601660008b81526020019081526020016000208054612469906149bb565b80601f0160208091040260200160405190810160405280929190818152602001828054612495906149bb565b80156124e25780601f106124b7576101008083540402835291602001916124e2565b820191906000526020600020905b8154815290600101906020018083116124c557829003601f168201915b505050505081525090506000601860009054906101000a900473ffffffffffffffffffffffffffffffffffffffff1673ffffffffffffffffffffffffffffffffffffffff1663dba1e38d8386866040518463ffffffff1660e01b815260040161254d9392919061518b565b600060405180830381865afa15801561256a573d6000803e3d6000fd5b505050506040513d6000823e3d601f19601f82011682018060405250810190612593919061526a565b905080975050505050505050919050565b600080600073ffffffffffffffffffffffffffffffffffffffff16601760009054906101000a900473ffffffffffffffffffffffffffffffffffffffff1673ffffffffffffffffffffffffffffffffffffffff161461264357601760009054906101000a900473ffffffffffffffffffffffffffffffffffffffff1660646009548561263091906152b3565b61263a919061530d565b9150915061264b565b600080915091505b915091565b61265982611210565b73ffffffffffffffffffffffffffffffffffffffff163373ffffffffffffffffffffffffffffffffffffffff161461269057600080fd5b600081116126d3576040517f08c379a00000000000000000000000000000000000000000000000000000000081526004016126ca906153b0565b60405180910390fd5b6040518060400160405280600581526020017f54696d6572000000000000000000000000000000000000000000000000000000815250600c6000848152602001908152602001600020908051906020019061272f929190613f05565b50804361273c9190615035565b600f6000848152602001908152602001600020819055505050565b601a818154811061276757600080fd5b906000526020600020016000915090508054612782906149bb565b80601f01602080910402602001604051908101604052809291908181526020018280546127ae906149bb565b80156127fb5780601f106127d0576101008083540402835291602001916127fb565b820191906000526020600020905b8154815290600101906020018083116127de57829003601f168201915b505050505081565b601f818154811061281357600080fd5b90600052602060002001600091509050805461282e906149bb565b80601f016020809104026020016040519081016040528092919081815260200182805461285a906149bb565b80156128a75780601f1061287c576101008083540402835291602001916128a7565b820191906000526020600020905b81548152906001019060200180831161288a57829003601f168201915b505050505081565b6000600660008473ffffffffffffffffffffffffffffffffffffffff1673ffffffffffffffffffffffffffffffffffffffff16815260200190815260200160002060008373ffffffffffffffffffffffffffffffffffffffff1673ffffffffffffffffffffffffffffffffffffffff16815260200190815260200160002060009054906101000a900460ff16905092915050565b61294b612f59565b600073ffffffffffffffffffffffffffffffffffffffff168173ffffffffffffffffffffffffffffffffffffffff16036129ba576040517f08c379a00000000000000000000000000000000000000000000000000000000081526004016129b190615442565b60405180910390fd5b6129c381613183565b50565b60007f553e757e000000000000000000000000000000000000000000000000000000007bffffffffffffffffffffffffffffffffffffffffffffffffffffffff1916827bffffffffffffffffffffffffffffffffffffffffffffffffffffffff19161480612a395750612a3882612a40565b5b9050919050565b60007f80ac58cd000000000000000000000000000000000000000000000000000000007bffffffffffffffffffffffffffffffffffffffffffffffffffffffff1916827bffffffffffffffffffffffffffffffffffffffffffffffffffffffff19161480612b0b57507f5b5e139f000000000000000000000000000000000000000000000000000000007bffffffffffffffffffffffffffffffffffffffffffffffffffffffff1916827bffffffffffffffffffffffffffffffffffffffffffffffffffffffff1916145b80612b1b5750612b1a826139a4565b5b9050919050565b612b2b816135e8565b612b6a576040517f08c379a0000000000000000000000000000000000000000000000000000000008152600401612b6190614e4a565b60405180910390fd5b50565b600033905090565b816005600083815260200190815260200160002060006101000a81548173ffffffffffffffffffffffffffffffffffffffff021916908373ffffffffffffffffffffffffffffffffffffffff160217905550808273ffffffffffffffffffffffffffffffffffffffff16612be883611210565b73ffffffffffffffffffffffffffffffffffffffff167f8c5be1e5ebec7d5bd14f71427d1e84f3dd0314c0f7b2291e5b200ac8c7c3b92560405160405180910390a45050565b600080612c3a83611210565b90508073ffffffffffffffffffffffffffffffffffffffff168473ffffffffffffffffffffffffffffffffffffffff161480612c7c5750612c7b81856128af565b5b80612cba57508373ffffffffffffffffffffffffffffffffffffffff16612ca2846109fc565b73ffffffffffffffffffffffffffffffffffffffff16145b91505092915050565b8273ffffffffffffffffffffffffffffffffffffffff16612ce382611210565b73ffffffffffffffffffffffffffffffffffffffff1614612d39576040517f08c379a0000000000000000000000000000000000000000000000000000000008152600401612d30906154d4565b60405180910390fd5b600073ffffffffffffffffffffffffffffffffffffffff168273ffffffffffffffffffffffffffffffffffffffff1603612da8576040517f08c379a0000000000000000000000000000000000000000000000000000000008152600401612d9f90615566565b60405180910390fd5b612db3838383613a0e565b612dbe600082612b75565b6001600460008573ffffffffffffffffffffffffffffffffffffffff1673ffffffffffffffffffffffffffffffffffffffff1681526020019081526020016000206000828254612e0e9190615586565b925050819055506001600460008473ffffffffffffffffffffffffffffffffffffffff1673ffffffffffffffffffffffffffffffffffffffff1681526020019081526020016000206000828254612e659190615035565b92505081905550816003600083815260200190815260200160002060006101000a81548173ffffffffffffffffffffffffffffffffffffffff021916908373ffffffffffffffffffffffffffffffffffffffff160217905550808273ffffffffffffffffffffffffffffffffffffffff168473ffffffffffffffffffffffffffffffffffffffff167fddf252ad1be2c89b69c2b068fc378daa952ba7f163c4a11628f55a4df523b3ef60405160405180910390a4612f24838383613a13565b505050565b6000612f51836000018373ffffffffffffffffffffffffffffffffffffffff1660001b613a18565b905092915050565b612f61612b6d565b73ffffffffffffffffffffffffffffffffffffffff16612f7f6116cb565b73ffffffffffffffffffffffffffffffffffffffff1614612fd5576040517f08c379a0000000000000000000000000000000000000000000000000000000008152600401612fcc90615606565b60405180910390fd5b565b6000612fff836000018373ffffffffffffffffffffffffffffffffffffffff1660001b613a3b565b905092915050565b600061301582600001613b4f565b9050919050565b600061302b8360000183613b60565b60001c905092915050565b600061304182611210565b905061304f81600084613a0e565b61305a600083612b75565b6001600460008373ffffffffffffffffffffffffffffffffffffffff1673ffffffffffffffffffffffffffffffffffffffff16815260200190815260200160002060008282546130aa9190615586565b925050819055506003600083815260200190815260200160002060006101000a81549073ffffffffffffffffffffffffffffffffffffffff021916905581600073ffffffffffffffffffffffffffffffffffffffff168273ffffffffffffffffffffffffffffffffffffffff167fddf252ad1be2c89b69c2b068fc378daa952ba7f163c4a11628f55a4df523b3ef60405160405180910390a461314f81600084613a13565b5050565b600061317b836000018373ffffffffffffffffffffffffffffffffffffffff1660001b613b8b565b905092915050565b60008060009054906101000a900473ffffffffffffffffffffffffffffffffffffffff169050816000806101000a81548173ffffffffffffffffffffffffffffffffffffffff021916908373ffffffffffffffffffffffffffffffffffffffff1602179055508173ffffffffffffffffffffffffffffffffffffffff168173ffffffffffffffffffffffffffffffffffffffff167f8be0079c531659141344cd1fd0a4f28419497f9722a3daafe3b4186f6b6457e060405160405180910390a35050565b600073ffffffffffffffffffffffffffffffffffffffff168273ffffffffffffffffffffffffffffffffffffffff16036132b6576040517f08c379a00000000000000000000000000000000000000000000000000000000081526004016132ad90615672565b60405180910390fd5b6132bf816135e8565b156132ff576040517f08c379a00000000000000000000000000000000000000000000000000000000081526004016132f6906156de565b60405180910390fd5b61330b60008383613a0e565b6001600460008473ffffffffffffffffffffffffffffffffffffffff1673ffffffffffffffffffffffffffffffffffffffff168152602001908152602001600020600082825461335b9190615035565b92505081905550816003600083815260200190815260200160002060006101000a81548173ffffffffffffffffffffffffffffffffffffffff021916908373ffffffffffffffffffffffffffffffffffffffff160217905550808273ffffffffffffffffffffffffffffffffffffffff16600073ffffffffffffffffffffffffffffffffffffffff167fddf252ad1be2c89b69c2b068fc378daa952ba7f163c4a11628f55a4df523b3ef60405160405180910390a461341c60008383613a13565b5050565b8173ffffffffffffffffffffffffffffffffffffffff168373ffffffffffffffffffffffffffffffffffffffff160361348e576040517f08c379a00000000000000000000000000000000000000000000000000000000081526004016134859061574a565b60405180910390fd5b80600660008573ffffffffffffffffffffffffffffffffffffffff1673ffffffffffffffffffffffffffffffffffffffff16815260200190815260200160002060008473ffffffffffffffffffffffffffffffffffffffff1673ffffffffffffffffffffffffffffffffffffffff16815260200190815260200160002060006101000a81548160ff0219169083151502179055508173ffffffffffffffffffffffffffffffffffffffff168373ffffffffffffffffffffffffffffffffffffffff167f17307eab39ab6107e8899845ad3d59bd9653f200f220920489ca2b5937696c318360405161357f919061416f565b60405180910390a3505050565b613597848484612cc3565b6135a384848484613bfb565b6135e2576040517f08c379a00000000000000000000000000000000000000000000000000000000081526004016135d9906157dc565b60405180910390fd5b50505050565b60008073ffffffffffffffffffffffffffffffffffffffff166003600084815260200190815260200160002060009054906101000a900473ffffffffffffffffffffffffffffffffffffffff1673ffffffffffffffffffffffffffffffffffffffff1614159050919050565b6060600061366143613d82565b90506000602060009054906101000a900460ff1661369157600c6000858152602001908152602001600020613697565b60216001015b80546136a2906149bb565b80601f01602080910402602001604051908101604052809291908181526020018280546136ce906149bb565b801561371b5780601f106136f05761010080835404028352916020019161371b565b820191906000526020600020905b8154815290600101906020018083116136fe57829003601f168201915b505050505090507fef8e6cc13e38bcfeef49bb09ff671d5d5703786b8da79966931752b107bf02a7818051906020012003613891576000602060009054906101000a900460ff1661377f57600f600086815260200190815260200160002054613786565b6021600301545b905080431061387457602060009054906101000a900460ff166137de576040518060400160405280600a81526020017f303030303030303030300000000000000000000000000000000000000000000081525061386d565b602160000180546137ee906149bb565b80601f016020809104026020016040519081016040528092919081815260200182805461381a906149bb565b80156138675780601f1061383c57610100808354040283529160200191613867565b820191906000526020600020905b81548152906001019060200180831161384a57829003601f168201915b50505050505b925061388b565b61388843826138839190615586565b613d82565b92505b50613910565b7f76546d76799d8df96a425e612058ea7e8f5d74e389821f05c9697de7d34c66b781805190602001200361390f576000602060009054906101000a900460ff166138ee57600e6000868152602001908152602001600020546138f5565b6021600201545b905061390b81436139069190615586565b613d82565b9250505b5b600082519050600a8110801561394657506021600001604051613933919061589b565b6040518091039020838051906020012014155b156139995760005b81600a61395b9190615586565b81101561399757836040516020016139739190615914565b6040516020818303038152906040529350808061398f90614c00565b91505061394e565b505b829350505050919050565b60007f01ffc9a7000000000000000000000000000000000000000000000000000000007bffffffffffffffffffffffffffffffffffffffffffffffffffffffff1916827bffffffffffffffffffffffffffffffffffffffffffffffffffffffff1916149050919050565b505050565b505050565b600080836001016000848152602001908152602001600020541415905092915050565b60008083600101600084815260200190815260200160002054905060008114613b43576000600182613a6d9190615586565b9050600060018660000180549050613a859190615586565b9050818114613af4576000866000018281548110613aa657613aa5614ba2565b5b9060005260206000200154905080876000018481548110613aca57613ac9614ba2565b5b90600052602060002001819055508387600101600083815260200190815260200160002081905550505b85600001805480613b0857613b0761593a565b5b600190038181906000526020600020016000905590558560010160008681526020019081526020016000206000905560019350505050613b49565b60009150505b92915050565b600081600001805490509050919050565b6000826000018281548110613b7857613b77614ba2565b5b9060005260206000200154905092915050565b6000613b978383613a18565b613bf0578260000182908060018154018082558091505060019003906000526020600020016000909190919091505582600001805490508360010160008481526020019081526020016000208190555060019050613bf5565b600090505b92915050565b6000613c1c8473ffffffffffffffffffffffffffffffffffffffff16613ee2565b15613d75578373ffffffffffffffffffffffffffffffffffffffff1663150b7a02613c45612b6d565b8786866040518563ffffffff1660e01b8152600401613c6794939291906159be565b6020604051808303816000875af1925050508015613ca357506040513d601f19601f82011682018060405250810190613ca09190615a1f565b60015b613d25573d8060008114613cd3576040519150601f19603f3d011682016040523d82523d6000602084013e613cd8565b606091505b506000815103613d1d576040517f08c379a0000000000000000000000000000000000000000000000000000000008152600401613d14906157dc565b60405180910390fd5b805181602001fd5b63150b7a0260e01b7bffffffffffffffffffffffffffffffffffffffffffffffffffffffff1916817bffffffffffffffffffffffffffffffffffffffffffffffffffffffff191614915050613d7a565b600190505b949350505050565b606060008203613dc9576040518060400160405280600181526020017f30000000000000000000000000000000000000000000000000000000000000008152509050613edd565b600082905060005b60008214613dfb578080613de490614c00565b915050600a82613df4919061530d565b9150613dd1565b60008167ffffffffffffffff811115613e1757613e16614775565b5b6040519080825280601f01601f191660200182016040528015613e495781602001600182028036833780820191505090505b5090505b60008514613ed657600182613e629190615586565b9150600a85613e719190614f72565b6030613e7d9190615035565b60f81b818381518110613e9357613e92614ba2565b5b60200101907effffffffffffffffffffffffffffffffffffffffffffffffffffffffffffff1916908160001a905350600a85613ecf919061530d565b9450613e4d565b8093505050505b919050565b6000808273ffffffffffffffffffffffffffffffffffffffff163b119050919050565b828054613f11906149bb565b90600052602060002090601f016020900481019282613f335760008555613f7a565b82601f10613f4c57805160ff1916838001178555613f7a565b82800160010185558215613f7a579182015b82811115613f79578251825591602001919060010190613f5e565b5b509050613f87919061409e565b5090565b828054613f97906149bb565b90600052602060002090601f016020900481019282613fb95760008555614007565b82601f10613fca5780548555614007565b8280016001018555821561400757600052602060002091601f016020900482015b82811115614006578254825591600101919060010190613feb565b5b509050614014919061409e565b5090565b828054614024906149bb565b90600052602060002090601f016020900481019282614046576000855561408d565b82601f1061405f57803560ff191683800117855561408d565b8280016001018555821561408d579182015b8281111561408c578235825591602001919060010190614071565b5b50905061409a919061409e565b5090565b5b808211156140b757600081600090555060010161409f565b5090565b6000604051905090565b600080fd5b600080fd5b60007fffffffff0000000000000000000000000000000000000000000000000000000082169050919050565b614104816140cf565b811461410f57600080fd5b50565b600081359050614121816140fb565b92915050565b60006020828403121561413d5761413c6140c5565b5b600061414b84828501614112565b91505092915050565b60008115159050919050565b61416981614154565b82525050565b60006020820190506141846000830184614160565b92915050565b600081519050919050565b600082825260208201905092915050565b60005b838110156141c45780820151818401526020810190506141a9565b838111156141d3576000848401525b50505050565b6000601f19601f8301169050919050565b60006141f58261418a565b6141ff8185614195565b935061420f8185602086016141a6565b614218816141d9565b840191505092915050565b6000602082019050818103600083015261423d81846141ea565b905092915050565b6000819050919050565b61425881614245565b811461426357600080fd5b50565b6000813590506142758161424f565b92915050565b600060208284031215614291576142906140c5565b5b600061429f84828501614266565b91505092915050565b600073ffffffffffffffffffffffffffffffffffffffff82169050919050565b60006142d3826142a8565b9050919050565b6142e3816142c8565b82525050565b60006020820190506142fe60008301846142da565b92915050565b61430d816142c8565b811461431857600080fd5b50565b60008135905061432a81614304565b92915050565b60008060408385031215614347576143466140c5565b5b60006143558582860161431b565b925050602061436685828601614266565b9150509250929050565b61437981614245565b82525050565b60006020820190506143946000830184614370565b92915050565b6000806000606084860312156143b3576143b26140c5565b5b60006143c18682870161431b565b93505060206143d28682870161431b565b92505060406143e386828701614266565b9150509250925092565b600060208284031215614403576144026140c5565b5b60006144118482850161431b565b91505092915050565b600081519050919050565b600082825260208201905092915050565b6000819050602082019050919050565b61444f816142c8565b82525050565b60006144618383614446565b60208301905092915050565b6000602082019050919050565b60006144858261441a565b61448f8185614425565b935061449a83614436565b8060005b838110156144cb5781516144b28882614455565b97506144bd8361446d565b92505060018101905061449e565b5085935050505092915050565b600060208201905081810360008301526144f2818461447a565b905092915050565b60008060408385031215614511576145106140c5565b5b600061451f85828601614266565b925050602061453085828601614266565b9150509250929050565b60008060408385031215614551576145506140c5565b5b600061455f85828601614266565b92505060206145708582860161431b565b9150509250929050565b6000614585826142a8565b9050919050565b6145958161457a565b81146145a057600080fd5b50565b6000813590506145b28161458c565b92915050565b600080604083850312156145cf576145ce6140c5565b5b60006145dd858286016145a3565b92505060206145ee85828601614266565b9150509250929050565b61460181614154565b811461460c57600080fd5b50565b60008135905061461e816145f8565b92915050565b6000806040838503121561463b5761463a6140c5565b5b60006146498582860161431b565b925050602061465a8582860161460f565b9150509250929050565b600080fd5b600080fd5b600080fd5b60008083601f84011261468957614688614664565b5b8235905067ffffffffffffffff8111156146a6576146a5614669565b5b6020830191508360018202830111156146c2576146c161466e565b5b9250929050565b600080600080600080608087890312156146e6576146e56140c5565b5b600087013567ffffffffffffffff811115614704576147036140ca565b5b61471089828a01614673565b9650965050602087013567ffffffffffffffff811115614733576147326140ca565b5b61473f89828a01614673565b9450945050604061475289828a01614266565b925050606061476389828a01614266565b9150509295509295509295565b600080fd5b7f4e487b7100000000000000000000000000000000000000000000000000000000600052604160045260246000fd5b6147ad826141d9565b810181811067ffffffffffffffff821117156147cc576147cb614775565b5b80604052505050565b60006147df6140bb565b90506147eb82826147a4565b919050565b600067ffffffffffffffff82111561480b5761480a614775565b5b614814826141d9565b9050602081019050919050565b82818337600083830152505050565b600061484361483e846147f0565b6147d5565b90508281526020810184848401111561485f5761485e614770565b5b61486a848285614821565b509392505050565b600082601f83011261488757614886614664565b5b8135614897848260208601614830565b91505092915050565b600080600080608085870312156148ba576148b96140c5565b5b60006148c88782880161431b565b94505060206148d98782880161431b565b93505060406148ea87828801614266565b925050606085013567ffffffffffffffff81111561490b5761490a6140ca565b5b61491787828801614872565b91505092959194509250565b600060408201905061493860008301856142da565b6149456020830184614370565b9392505050565b60008060408385031215614963576149626140c5565b5b60006149718582860161431b565b92505060206149828582860161431b565b9150509250929050565b7f4e487b7100000000000000000000000000000000000000000000000000000000600052602260045260246000fd5b600060028204905060018216806149d357607f821691505b6020821081036149e6576149e561498c565b5b50919050565b7f4552433732313a20617070726f76616c20746f2063757272656e74206f776e6560008201527f7200000000000000000000000000000000000000000000000000000000000000602082015250565b6000614a48602183614195565b9150614a53826149ec565b604082019050919050565b60006020820190508181036000830152614a7781614a3b565b9050919050565b7f4552433732313a20617070726f76652063616c6c6572206973206e6f7420746f60008201527f6b656e206f776e6572206e6f7220617070726f76656420666f7220616c6c0000602082015250565b6000614ada603e83614195565b9150614ae582614a7e565b604082019050919050565b60006020820190508181036000830152614b0981614acd565b9050919050565b7f4552433732313a2063616c6c6572206973206e6f7420746f6b656e206f776e6560008201527f72206e6f7220617070726f766564000000000000000000000000000000000000602082015250565b6000614b6c602e83614195565b9150614b7782614b10565b604082019050919050565b60006020820190508181036000830152614b9b81614b5f565b9050919050565b7f4e487b7100000000000000000000000000000000000000000000000000000000600052603260045260246000fd5b7f4e487b7100000000000000000000000000000000000000000000000000000000600052601160045260246000fd5b6000614c0b82614245565b91507fffffffffffffffffffffffffffffffffffffffffffffffffffffffffffffffff8203614c3d57614c3c614bd1565b5b600182019050919050565b7f596f752063616e206f6e6c79206275726e20796f7572206f776e20746f6b656e60008201527f7300000000000000000000000000000000000000000000000000000000000000602082015250565b6000614ca4602183614195565b9150614caf82614c48565b604082019050919050565b60006020820190508181036000830152614cd381614c97565b9050919050565b7f416e20616c61726d206e6565647320746f20626520696e20746865206675747560008201527f7265000000000000000000000000000000000000000000000000000000000000602082015250565b6000614d36602283614195565b9150614d4182614cda565b604082019050919050565b60006020820190508181036000830152614d6581614d29565b9050919050565b7f41646d696e436f6e74726f6c3a204d757374206265206f776e6572206f72206160008201527f646d696e00000000000000000000000000000000000000000000000000000000602082015250565b6000614dc8602483614195565b9150614dd382614d6c565b604082019050919050565b60006020820190508181036000830152614df781614dbb565b9050919050565b7f4552433732313a20696e76616c696420746f6b656e2049440000000000000000600082015250565b6000614e34601883614195565b9150614e3f82614dfe565b602082019050919050565b60006020820190508181036000830152614e6381614e27565b9050919050565b6000819050919050565b614e85614e8082614245565b614e6a565b82525050565b60008160601b9050919050565b6000614ea382614e8b565b9050919050565b6000614eb582614e98565b9050919050565b614ecd614ec8826142c8565b614eaa565b82525050565b6000614edf8289614e74565b602082019150614eef8288614e74565b602082019150614eff8287614e74565b602082019150614f0f8286614e74565b602082019150614f1f8285614ebc565b601482019150614f2f8284614ebc565b601482019150819050979650505050505050565b7f4e487b7100000000000000000000000000000000000000000000000000000000600052601260045260246000fd5b6000614f7d82614245565b9150614f8883614245565b925082614f9857614f97614f43565b5b828206905092915050565b7f4552433732313a2061646472657373207a65726f206973206e6f74206120766160008201527f6c6964206f776e65720000000000000000000000000000000000000000000000602082015250565b6000614fff602983614195565b915061500a82614fa3565b604082019050919050565b6000602082019050818103600083015261502e81614ff2565b9050919050565b600061504082614245565b915061504b83614245565b9250827fffffffffffffffffffffffffffffffffffffffffffffffffffffffffffffffff038211156150805761507f614bd1565b5b828201905092915050565b600060099050919050565b600081905092915050565b6000819050919050565b600082825260208201905092915050565b60006150c78261418a565b6150d181856150ab565b93506150e18185602086016141a6565b6150ea816141d9565b840191505092915050565b600061510183836150bc565b905092915050565b6000602082019050919050565b60006151218261508b565b61512b8185615096565b93508360208202850161513d856150a1565b8060005b85811015615179578484038952815161515a85826150f5565b945061516583615109565b925060208a01995050600181019050615141565b50829750879550505050505092915050565b600060608201905081810360008301526151a58186615116565b90506151b46020830185614370565b6151c16040830184614370565b949350505050565b600067ffffffffffffffff8211156151e4576151e3614775565b5b6151ed826141d9565b9050602081019050919050565b600061520d615208846151c9565b6147d5565b90508281526020810184848401111561522957615228614770565b5b6152348482856141a6565b509392505050565b600082601f83011261525157615250614664565b5b81516152618482602086016151fa565b91505092915050565b6000602082840312156152805761527f6140c5565b5b600082015167ffffffffffffffff81111561529e5761529d6140ca565b5b6152aa8482850161523c565b91505092915050565b60006152be82614245565b91506152c983614245565b9250817fffffffffffffffffffffffffffffffffffffffffffffffffffffffffffffffff048311821515161561530257615301614bd1565b5b828202905092915050565b600061531882614245565b915061532383614245565b92508261533357615332614f43565b5b828204905092915050565b7f54686520626c6f636b206e756d626572206e6565647320746f20626520706f7360008201527f6974697665000000000000000000000000000000000000000000000000000000602082015250565b600061539a602583614195565b91506153a58261533e565b604082019050919050565b600060208201905081810360008301526153c98161538d565b9050919050565b7f4f776e61626c653a206e6577206f776e657220697320746865207a65726f206160008201527f6464726573730000000000000000000000000000000000000000000000000000602082015250565b600061542c602683614195565b9150615437826153d0565b604082019050919050565b6000602082019050818103600083015261545b8161541f565b9050919050565b7f4552433732313a207472616e736665722066726f6d20696e636f72726563742060008201527f6f776e6572000000000000000000000000000000000000000000000000000000602082015250565b60006154be602583614195565b91506154c982615462565b604082019050919050565b600060208201905081810360008301526154ed816154b1565b9050919050565b7f4552433732313a207472616e7366657220746f20746865207a65726f2061646460008201527f7265737300000000000000000000000000000000000000000000000000000000602082015250565b6000615550602483614195565b915061555b826154f4565b604082019050919050565b6000602082019050818103600083015261557f81615543565b9050919050565b600061559182614245565b915061559c83614245565b9250828210156155af576155ae614bd1565b5b828203905092915050565b7f4f776e61626c653a2063616c6c6572206973206e6f7420746865206f776e6572600082015250565b60006155f0602083614195565b91506155fb826155ba565b602082019050919050565b6000602082019050818103600083015261561f816155e3565b9050919050565b7f4552433732313a206d696e7420746f20746865207a65726f2061646472657373600082015250565b600061565c602083614195565b915061566782615626565b602082019050919050565b6000602082019050818103600083015261568b8161564f565b9050919050565b7f4552433732313a20746f6b656e20616c7265616479206d696e74656400000000600082015250565b60006156c8601c83614195565b91506156d382615692565b602082019050919050565b600060208201905081810360008301526156f7816156bb565b9050919050565b7f4552433732313a20617070726f766520746f2063616c6c657200000000000000600082015250565b6000615734601983614195565b915061573f826156fe565b602082019050919050565b6000602082019050818103600083015261576381615727565b9050919050565b7f4552433732313a207472616e7366657220746f206e6f6e20455243373231526560008201527f63656976657220696d706c656d656e7465720000000000000000000000000000602082015250565b60006157c6603283614195565b91506157d18261576a565b604082019050919050565b600060208201905081810360008301526157f5816157b9565b9050919050565b600081905092915050565b60008190508160005260206000209050919050565b60008154615829816149bb565b61583381866157fc565b9450600182166000811461584e576001811461585f57615892565b60ff19831686528186019350615892565b61586885615807565b60005b8381101561588a5781548189015260018201915060208101905061586b565b838801955050505b50505092915050565b60006158a7828461581c565b915081905092915050565b7f3000000000000000000000000000000000000000000000000000000000000000815250565b600081905092915050565b60006158ee8261418a565b6158f881856158d8565b93506159088185602086016141a6565b80840191505092915050565b600061591f826158b2565b60018201915061592f82846158e3565b915081905092915050565b7f4e487b7100000000000000000000000000000000000000000000000000000000600052603160045260246000fd5b600081519050919050565b600082825260208201905092915050565b600061599082615969565b61599a8185615974565b93506159aa8185602086016141a6565b6159b3816141d9565b840191505092915050565b60006080820190506159d360008301876142da565b6159e060208301866142da565b6159ed6040830185614370565b81810360608301526159ff8184615985565b905095945050505050565b600081519050615a19816140fb565b92915050565b600060208284031215615a3557615a346140c5565b5b6000615a4384828501615a0a565b9150509291505056fea26469706673582212204a9d6ec6e914bce4e208075502f48603731962329a1c58b52a662480ad9eb4d764736f6c634300080d0033",
  "immutableReferences": {},
  "source": "// SPDX-License-Identifier: MIT\n\npragma solidity >= 0.8.13;\n\nimport \"@openzeppelin/contracts/token/ERC721/ERC721.sol\";\nimport \"@openzeppelin/contracts/token/ERC20/IERC20.sol\";\nimport \"@manifoldxyz/royalty-registry-solidity/contracts/specs/IEIP2981.sol\";\nimport \"@manifoldxyz/libraries-solidity/contracts/access/AdminControl.sol\";\nimport \"@openzeppelin/contracts/utils/Strings.sol\";\nimport 'base64-sol/base64.sol';\nimport \"./ClockURI.sol\";\n\n\ncontract Clock is ERC721, AdminControl {\n    \n    uint256 private _royaltyAmount; //in % \n    uint256 public _tokenId;\n    uint256 public _maxSupply = 200;\n\n    mapping(uint => string) _modes;\n    mapping(uint => string) _wallColors;\n    mapping(uint => uint) _chronos;\n    mapping(uint => uint) _timers;\n    mapping(uint => uint) _alarms;\n    mapping(uint => string) _opacities;\n    mapping(uint => string) _clockFills;\n    mapping(uint => string) _clockFrames;\n    mapping(uint => string) _clockScreen;\n    mapping(uint => string) _ledColors;\n    mapping(uint => string) _shadows;\n\n    address payable private _royalties_recipient;\n    address _clockURIAddress;\n\n    string[] public _colorOptions;\n    string[] public _opacitiesOptions;\n    string[] public _clockOutlinesOptions;\n    string[] public _clockFillsOptions;\n    string[] public _screenColorsOptions;\n    string[] public _ledColorsOptions;\n    string[] public _shadowsOptions;\n\n    bool _clocksHacked;\n    bool _publicMintOpened;\n    \n    struct Hack{\n        string value;\n        string mode;\n        uint256 chrono;\n        uint256 timer;\n        uint256 alarm;\n    }\n\n    Hack _hack;\n\n    constructor () ERC721(\"ETH Clock\", \"ETH Clock\") {\n        _royalties_recipient = payable(msg.sender);\n        _royaltyAmount = 10;\n        _tokenId = 0;\n        _clockURIAddress = 0xeEAb674E788cC7Da0624bc555bC5aEfEf9F2881B;\n        _colorOptions = ['ffd097', 'f8a7a7', 'c3d5fc', 'a0e3a1', 'f0eb5b', 'a3a3a3'];\n        _opacitiesOptions = ['0', '3', '6'];\n        _clockOutlinesOptions = ['fff', '000'];\n        _clockFillsOptions = ['752125', 'c90000', '00a331', '7202b3'];\n        _screenColorsOptions = ['cccccc', 'fff', '1e1e1e'];\n        _ledColorsOptions = ['ff000c', '008700', '0074b8','ffa200'];\n        _shadowsOptions = ['0','1','2','3'];\n    } \n\n    function supportsInterface(bytes4 interfaceId)\n        public\n        view\n        virtual\n        override(ERC721, AdminControl)\n        returns (bool)\n    {\n        return\n        AdminControl.supportsInterface(interfaceId) ||\n        ERC721.supportsInterface(interfaceId) ||\n        interfaceId == type(IEIP2981).interfaceId ||\n        super.supportsInterface(interfaceId);\n    }\n\n    function adminMint(\n        address account\n    ) external adminRequired{\n        require(_tokenId + 1 <= _maxSupply);\n        _mint(account, _tokenId);\n        _modes[_tokenId] = 'Clock';\n        _wallColors[_tokenId] = _colorOptions[getPseudoRndNum(_colorOptions.length, account)];\n        _opacities[_tokenId] = _opacitiesOptions[getPseudoRndNum(_opacitiesOptions.length, account)];\n        _clockFills[_tokenId] = _clockFillsOptions[getPseudoRndNum(_clockFillsOptions.length, account)];\n        _clockFrames[_tokenId] = _clockOutlinesOptions[getPseudoRndNum(_clockOutlinesOptions.length, account)];\n        _clockScreen[_tokenId] = _screenColorsOptions[getPseudoRndNum(_screenColorsOptions.length, account)];\n        _ledColors[_tokenId] = _ledColorsOptions[getPseudoRndNum(_ledColorsOptions.length, account)];\n        _shadows[_tokenId] = _shadowsOptions[getPseudoRndNum(_shadowsOptions.length, account)];\n        _tokenId += 1;\n    }\n\n    function getPseudoRndNum(uint256 length, address account) public view returns (uint256){    \n        uint256 rnd = uint256(keccak256(abi.encodePacked(block.difficulty, block.timestamp, _tokenId, length, msg.sender, account))) % length;\n        return rnd;   \n    }\n\n    function setTimer(uint256 tokenId, uint256 blocks) external {\n        require(msg.sender == ownerOf(tokenId));\n        require(blocks > 0, \"The block number needs to be positive\");\n        _modes[tokenId] = 'Timer';\n        _timers[tokenId] = block.number + blocks;\n    }\n\n    function setAlarm(uint256 tokenId, uint256 targetBlock) external {\n        require(msg.sender == ownerOf(tokenId));\n        require(targetBlock > block.number, \"An alarm needs to be in the future\");\n        _modes[tokenId] = 'Alarm';\n        _alarms[tokenId] = targetBlock;\n    }\n\n    function setChrono(uint256 tokenId) external {\n        require(msg.sender == ownerOf(tokenId));\n        _modes[tokenId] = 'Chrono';\n        _chronos[tokenId] = block.number;\n    }\n\n    function resetClock(uint256 tokenId) external {\n        require(msg.sender == ownerOf(tokenId));\n        _modes[tokenId] ='Clock';\n    }\n\n    function setClockURIAddress(address clockURIAddress) external adminRequired{\n        _clockURIAddress = clockURIAddress;\n    }\n\n    function hackClocks(\n        string calldata value,\n        string calldata mode,\n        uint256 timer,\n        uint256 alarm\n    )external adminRequired{\n        require(alarm > block.number);\n        require(timer > 0);\n        _clocksHacked = true;\n        _hack.value = value;\n        _hack.mode = mode;\n        _hack.chrono = block.number;\n        _hack.timer =  block.number + timer;\n        _hack.alarm = alarm;\n    }\n\n    function restoreClocks()external adminRequired{\n        _clocksHacked = false;\n    }\n    \n    function getClockValue(uint256 tokenId) internal view returns(string memory value){\n        string memory clockValue = Strings.toString(block.number);\n        string memory mode = _clocksHacked ? _hack.mode : _modes[tokenId];\n        if(keccak256(bytes(mode)) == keccak256(\"Timer\")){\n            uint256 timer = _clocksHacked ? _hack.timer : _timers[tokenId];\n            if(block.number >= timer){\n                clockValue =  _clocksHacked ? _hack.value : \"0000000000\";\n            }else{\n                clockValue = Strings.toString(timer - block.number);\n            }\n        }else if(keccak256(bytes(mode)) == keccak256('Chrono')) {\n            uint256 chrono = _clocksHacked ? _hack.chrono : _chronos[tokenId];\n            clockValue = Strings.toString(block.number - chrono);\n        }\n\n        uint256 clockValueLength = bytes(clockValue).length;\n        if(clockValueLength<10 && keccak256(bytes(clockValue)) != keccak256(bytes(_hack.value))){\n            for(uint256 i=0;i<(10-clockValueLength); i++){\n                clockValue = string.concat(\"0\", clockValue) ;\n            }\n        }\n        return clockValue;\n    }\n\n    function tokenURI(uint256 tokenId) public view virtual override returns (string memory) {\n        require(_exists(tokenId));\n        string memory clockValue = getClockValue(tokenId);\n        string memory wallColor = _clocksHacked ? '000' : _wallColors[tokenId];\n        string memory mode = _clocksHacked ? _hack.mode : _modes[tokenId];\n        uint256 timer = _clocksHacked ? _hack.timer : _timers[tokenId];\n        uint256 alarm = _clocksHacked ? _hack.alarm : _alarms[tokenId];\n        string[9] memory clockCustomization = [\n            clockValue, \n            mode,\n            wallColor, \n            _opacities[tokenId], \n            _clockFills[tokenId], \n            _clockFrames[tokenId], \n            _clockScreen[tokenId], \n            _ledColors[tokenId],\n            _shadows[tokenId]];\n\n        string memory uri = ClockURI(_clockURIAddress).buildURI(\n            clockCustomization,\n            timer,\n            alarm\n        );\n        return uri;\n    }\n\n    function burn(uint256 tokenId) public {\n        require(ownerOf(tokenId)== msg.sender, \"You can only burn your own tokens\");\n        _burn(tokenId);\n    }\n\n    function setRoyalties(address payable _recipient, uint256 _royaltyPerCent) external adminRequired {\n        _royalties_recipient = _recipient;\n        _royaltyAmount = _royaltyPerCent;\n    }\n\n    function royaltyInfo(uint256 salePrice) external view returns (address, uint256) {\n        if(_royalties_recipient != address(0)){\n            return (_royalties_recipient, (salePrice * _royaltyAmount) / 100 );\n        }\n        return (address(0), 0);\n    }\n\n    function withdraw(address recipient) external adminRequired {\n        payable(recipient).transfer(address(this).balance);\n    }\n\n}   ",
  "sourcePath": "/Users/bct/Documents/Dev/NFT_dev/Clock/contracts/Clock.sol",
  "compiler": {
    "name": "solc",
    "version": "0.8.13+commit.abaa5c0e.Emscripten.clang"
  },
  "schemaVersion": "3.4.4",
  "updatedAt": "2022-09-07T21:35:00.387Z",
  "devdoc": {
    "kind": "dev",
    "methods": {
      "approve(address,uint256)": {
        "details": "See {IERC721-approve}."
      },
      "approveAdmin(address)": {
        "details": "See {IAdminControl-approveAdmin}."
      },
      "balanceOf(address)": {
        "details": "See {IERC721-balanceOf}."
      },
      "getAdmins()": {
        "details": "See {IAdminControl-getAdmins}."
      },
      "getApproved(uint256)": {
        "details": "See {IERC721-getApproved}."
      },
      "isAdmin(address)": {
        "details": "See {IAdminControl-isAdmin}."
      },
      "isApprovedForAll(address,address)": {
        "details": "See {IERC721-isApprovedForAll}."
      },
      "name()": {
        "details": "See {IERC721Metadata-name}."
      },
      "owner()": {
        "details": "Returns the address of the current owner."
      },
      "ownerOf(uint256)": {
        "details": "See {IERC721-ownerOf}."
      },
      "renounceOwnership()": {
        "details": "Leaves the contract without owner. It will not be possible to call `onlyOwner` functions anymore. Can only be called by the current owner. NOTE: Renouncing ownership will leave the contract without an owner, thereby removing any functionality that is only available to the owner."
      },
      "revokeAdmin(address)": {
        "details": "See {IAdminControl-revokeAdmin}."
      },
      "safeTransferFrom(address,address,uint256)": {
        "details": "See {IERC721-safeTransferFrom}."
      },
      "safeTransferFrom(address,address,uint256,bytes)": {
        "details": "See {IERC721-safeTransferFrom}."
      },
      "setApprovalForAll(address,bool)": {
        "details": "See {IERC721-setApprovalForAll}."
      },
      "symbol()": {
        "details": "See {IERC721Metadata-symbol}."
      },
      "tokenURI(uint256)": {
        "details": "See {IERC721Metadata-tokenURI}."
      },
      "transferFrom(address,address,uint256)": {
        "details": "See {IERC721-transferFrom}."
      },
      "transferOwnership(address)": {
        "details": "Transfers ownership of the contract to a new account (`newOwner`). Can only be called by the current owner."
      }
    },
    "version": 1
  },
  "userdoc": {
    "kind": "user",
    "methods": {},
    "version": 1
  }
}