{
  "contractName": "ClockURI",
  "abi": [
    {
      "inputs": [],
      "stateMutability": "nonpayable",
      "type": "constructor"
    },
    {
      "inputs": [
        {
          "internalType": "string[9]",
          "name": "clockCustomization",
          "type": "string[9]"
        },
        {
          "internalType": "uint256",
          "name": "timer",
          "type": "uint256"
        },
        {
          "internalType": "uint256",
          "name": "alarm",
          "type": "uint256"
        }
      ],
      "name": "buildURI",
      "outputs": [
        {
          "internalType": "string",
          "name": "",
          "type": "string"
        }
      ],
      "stateMutability": "view",
      "type": "function"
    }
  ],
  "bytecode": "0x60806040523480156200001157600080fd5b506040518060a00160405280604051806060016040528060248152602001620046626024913981526020016040518060400160405280601281526020017f222c20226465736372697074696f6e223a22000000000000000000000000000081525081526020016040518060800160405280604481526020016200447e6044913981526020016040518060400160405280601181526020017f222c202261747472696275746573223a5b00000000000000000000000000000081525081526020016040518060400160405280600281526020017f5d7d00000000000000000000000000000000000000000000000000000000000081525081525060059060056200011c92919062000d1f565b506040518060400160405280600681526020017f4f72616e676500000000000000000000000000000000000000000000000000008152506006604051620001639062000eff565b908152602001604051809103902090805190602001906200018692919062000d86565b506040518060400160405280600481526020017f50696e6b000000000000000000000000000000000000000000000000000000008152506006604051620001cd9062000f66565b90815260200160405180910390209080519060200190620001f092919062000d86565b506040518060400160405280600481526020017f426c7565000000000000000000000000000000000000000000000000000000008152506006604051620002379062000fcd565b908152602001604051809103902090805190602001906200025a92919062000d86565b506040518060400160405280600581526020017f477265656e0000000000000000000000000000000000000000000000000000008152506006604051620002a19062001034565b90815260200160405180910390209080519060200190620002c492919062000d86565b506040518060400160405280600681526020017f59656c6c6f77000000000000000000000000000000000000000000000000000081525060066040516200030b906200109b565b908152602001604051809103902090805190602001906200032e92919062000d86565b506040518060400160405280600481526020017f47726579000000000000000000000000000000000000000000000000000000008152506006604051620003759062001102565b908152602001604051809103902090805190602001906200039892919062000d86565b506040518060400160405280600781526020017f496e646f6f7273000000000000000000000000000000000000000000000000008152506007604051620003df9062001169565b908152602001604051809103902090805190602001906200040292919062000d86565b506040518060400160405280600681526020017f436c6f756479000000000000000000000000000000000000000000000000000081525060076040516200044990620011d0565b908152602001604051809103902090805190602001906200046c92919062000d86565b506040518060400160405280600581526020017f53756e6e790000000000000000000000000000000000000000000000000000008152506007604051620004b39062001237565b90815260200160405180910390209080519060200190620004d692919062000d86565b506040518060400160405280600581526020017f576869746500000000000000000000000000000000000000000000000000000081525060086040516200051d906200129e565b908152602001604051809103902090805190602001906200054092919062000d86565b506040518060400160405280600581526020017f426c61636b0000000000000000000000000000000000000000000000000000008152506008604051620005879062001305565b90815260200160405180910390209080519060200190620005aa92919062000d86565b506040518060400160405280600581526020017f42726f776e0000000000000000000000000000000000000000000000000000008152506009604051620005f1906200136c565b908152602001604051809103902090805190602001906200061492919062000d86565b506040518060400160405280600381526020017f526564000000000000000000000000000000000000000000000000000000000081525060096040516200065b90620013d3565b908152602001604051809103902090805190602001906200067e92919062000d86565b506040518060400160405280600581526020017f477265656e0000000000000000000000000000000000000000000000000000008152506009604051620006c5906200143a565b90815260200160405180910390209080519060200190620006e892919062000d86565b506040518060400160405280600681526020017f507572706c65000000000000000000000000000000000000000000000000000081525060096040516200072f90620014a1565b908152602001604051809103902090805190602001906200075292919062000d86565b506040518060400160405280600481526020017f4772657900000000000000000000000000000000000000000000000000000000815250600a604051620007999062001508565b90815260200160405180910390209080519060200190620007bc92919062000d86565b506040518060400160405280600581526020017f5768697465000000000000000000000000000000000000000000000000000000815250600a60405162000803906200129e565b908152602001604051809103902090805190602001906200082692919062000d86565b506040518060400160405280600581526020017f426c61636b000000000000000000000000000000000000000000000000000000815250600a6040516200086d906200156f565b908152602001604051809103902090805190602001906200089092919062000d86565b506040518060400160405280600381526020017f5265640000000000000000000000000000000000000000000000000000000000815250600b604051620008d790620015d6565b90815260200160405180910390209080519060200190620008fa92919062000d86565b506040518060400160405280600581526020017f477265656e000000000000000000000000000000000000000000000000000000815250600b60405162000941906200163d565b908152602001604051809103902090805190602001906200096492919062000d86565b506040518060400160405280600481526020017f426c756500000000000000000000000000000000000000000000000000000000815250600b604051620009ab90620016a4565b90815260200160405180910390209080519060200190620009ce92919062000d86565b506040518060400160405280600681526020017f4f72616e67650000000000000000000000000000000000000000000000000000815250600b60405162000a15906200170b565b9081526020016040518091039020908051906020019062000a3892919062000d86565b506040518060a0016040528060678152602001620045fb60679139600d60405162000a639062001169565b9081526020016040518091039020908051906020019062000a8692919062000d86565b506040518060a0016040528060688152602001620044c260689139600d60405162000ab19062001772565b9081526020016040518091039020908051906020019062000ad492919062000d86565b506040518060a00160405280606981526020016200459260699139600d60405162000aff90620017d9565b9081526020016040518091039020908051906020019062000b2292919062000d86565b506040518060a00160405280606881526020016200452a60689139600d60405162000b4d90620011d0565b9081526020016040518091039020908051906020019062000b7092919062000d86565b506040518060400160405280600481526020017f4461776e00000000000000000000000000000000000000000000000000000000815250600c60405162000bb79062001169565b9081526020016040518091039020908051906020019062000bda92919062000d86565b506040518060400160405280600981526020017f41667465726e6f6f6e0000000000000000000000000000000000000000000000815250600c60405162000c219062001772565b9081526020016040518091039020908051906020019062000c4492919062000d86565b506040518060400160405280600781526020017f4d6f726e696e6700000000000000000000000000000000000000000000000000815250600c60405162000c8b90620017d9565b9081526020016040518091039020908051906020019062000cae92919062000d86565b506040518060400160405280600481526020017f4475736b00000000000000000000000000000000000000000000000000000000815250600c60405162000cf590620011d0565b9081526020016040518091039020908051906020019062000d1892919062000d86565b5062001854565b82805482825590600052602060002090810192821562000d73579160200282015b8281111562000d7257825182908051906020019062000d6192919062000d86565b509160200191906001019062000d40565b5b50905062000d82919062000e17565b5090565b82805462000d94906200181f565b90600052602060002090601f01602090048101928262000db8576000855562000e04565b82601f1062000dd357805160ff191683800117855562000e04565b8280016001018555821562000e04579182015b8281111562000e0357825182559160200191906001019062000de6565b5b50905062000e13919062000e3f565b5090565b5b8082111562000e3b576000818162000e31919062000e5e565b5060010162000e18565b5090565b5b8082111562000e5a57600081600090555060010162000e40565b5090565b50805462000e6c906200181f565b6000825580601f1062000e80575062000ea1565b601f01602090049060005260206000209081019062000ea0919062000e3f565b5b50565b600081905092915050565b7f6666643039370000000000000000000000000000000000000000000000000000600082015250565b600062000ee760068362000ea4565b915062000ef48262000eaf565b600682019050919050565b600062000f0c8262000ed8565b9150819050919050565b7f6638613761370000000000000000000000000000000000000000000000000000600082015250565b600062000f4e60068362000ea4565b915062000f5b8262000f16565b600682019050919050565b600062000f738262000f3f565b9150819050919050565b7f6333643566630000000000000000000000000000000000000000000000000000600082015250565b600062000fb560068362000ea4565b915062000fc28262000f7d565b600682019050919050565b600062000fda8262000fa6565b9150819050919050565b7f6130653361310000000000000000000000000000000000000000000000000000600082015250565b60006200101c60068362000ea4565b9150620010298262000fe4565b600682019050919050565b600062001041826200100d565b9150819050919050565b7f6630656235620000000000000000000000000000000000000000000000000000600082015250565b60006200108360068362000ea4565b915062001090826200104b565b600682019050919050565b6000620010a88262001074565b9150819050919050565b7f59656c6c6f770000000000000000000000000000000000000000000000000000600082015250565b6000620010ea60068362000ea4565b9150620010f782620010b2565b600682019050919050565b60006200110f82620010db565b9150819050919050565b7f3000000000000000000000000000000000000000000000000000000000000000600082015250565b60006200115160018362000ea4565b91506200115e8262001119565b600182019050919050565b6000620011768262001142565b9150819050919050565b7f3300000000000000000000000000000000000000000000000000000000000000600082015250565b6000620011b860018362000ea4565b9150620011c58262001180565b600182019050919050565b6000620011dd82620011a9565b9150819050919050565b7f3600000000000000000000000000000000000000000000000000000000000000600082015250565b60006200121f60018362000ea4565b91506200122c82620011e7565b600182019050919050565b6000620012448262001210565b9150819050919050565b7f6666660000000000000000000000000000000000000000000000000000000000600082015250565b60006200128660038362000ea4565b915062001293826200124e565b600382019050919050565b6000620012ab8262001277565b9150819050919050565b7f3030300000000000000000000000000000000000000000000000000000000000600082015250565b6000620012ed60038362000ea4565b9150620012fa82620012b5565b600382019050919050565b60006200131282620012de565b9150819050919050565b7f3735323132350000000000000000000000000000000000000000000000000000600082015250565b60006200135460068362000ea4565b915062001361826200131c565b600682019050919050565b6000620013798262001345565b9150819050919050565b7f6339303030300000000000000000000000000000000000000000000000000000600082015250565b6000620013bb60068362000ea4565b9150620013c88262001383565b600682019050919050565b6000620013e082620013ac565b9150819050919050565b7f3030613333310000000000000000000000000000000000000000000000000000600082015250565b60006200142260068362000ea4565b91506200142f82620013ea565b600682019050919050565b6000620014478262001413565b9150819050919050565b7f3732303262330000000000000000000000000000000000000000000000000000600082015250565b60006200148960068362000ea4565b9150620014968262001451565b600682019050919050565b6000620014ae826200147a565b9150819050919050565b7f6363636363630000000000000000000000000000000000000000000000000000600082015250565b6000620014f060068362000ea4565b9150620014fd82620014b8565b600682019050919050565b60006200151582620014e1565b9150819050919050565b7f3165316531650000000000000000000000000000000000000000000000000000600082015250565b60006200155760068362000ea4565b915062001564826200151f565b600682019050919050565b60006200157c8262001548565b9150819050919050565b7f6666303030630000000000000000000000000000000000000000000000000000600082015250565b6000620015be60068362000ea4565b9150620015cb8262001586565b600682019050919050565b6000620015e382620015af565b9150819050919050565b7f3030383730300000000000000000000000000000000000000000000000000000600082015250565b60006200162560068362000ea4565b91506200163282620015ed565b600682019050919050565b60006200164a8262001616565b9150819050919050565b7f3030373462380000000000000000000000000000000000000000000000000000600082015250565b60006200168c60068362000ea4565b9150620016998262001654565b600682019050919050565b6000620016b1826200167d565b9150819050919050565b7f6666613230300000000000000000000000000000000000000000000000000000600082015250565b6000620016f360068362000ea4565b91506200170082620016bb565b600682019050919050565b60006200171882620016e4565b9150819050919050565b7f3100000000000000000000000000000000000000000000000000000000000000600082015250565b60006200175a60018362000ea4565b9150620017678262001722565b600182019050919050565b60006200177f826200174b565b9150819050919050565b7f3200000000000000000000000000000000000000000000000000000000000000600082015250565b6000620017c160018362000ea4565b9150620017ce8262001789565b600182019050919050565b6000620017e682620017b2565b9150819050919050565b7f4e487b7100000000000000000000000000000000000000000000000000000000600052602260045260246000fd5b600060028204905060018216806200183857607f821691505b6020821081036200184e576200184d620017f0565b5b50919050565b612c1a80620018646000396000f3fe608060405234801561001057600080fd5b506004361061002b5760003560e01c8063dba1e38d14610030575b600080fd5b61004a60048036038101906100459190610e4b565b610060565b6040516100579190610f53565b60405180910390f35b60606000600560008154811061007957610078610f75565b5b9060005260206000200160405160200161009391906110ef565b60405160208183030381529060405260056001815481106100b7576100b6610f75565b5b906000526020600020016040516020016100d1919061121b565b60405160208183030381529060405260056002815481106100f5576100f4610f75565b5b9060005260206000200161010a8888886103ab565b60405160200161011b92919061126e565b604051602081830303815290604052600560038154811061013f5761013e610f75565b5b9060005260206000200160068960026009811061015f5761015e610f75565b5b60200281019061016f91906112a1565b60405161017d929190611338565b908152602001604051809103902060078a6003600981106101a1576101a0610f75565b5b6020028101906101b191906112a1565b6040516101bf929190611338565b908152602001604051809103902060088b6005600981106101e3576101e2610f75565b5b6020028101906101f391906112a1565b604051610201929190611338565b908152602001604051809103902060098c60046009811061022557610224610f75565b5b60200281019061023591906112a1565b604051610243929190611338565b9081526020016040518091039020600a8d60066009811061026757610266610f75565b5b60200281019061027791906112a1565b604051610285929190611338565b9081526020016040518091039020600c8e6008600981106102a9576102a8610f75565b5b6020028101906102b991906112a1565b6040516102c7929190611338565b9081526020016040518091039020600b8f6007600981106102eb576102ea610f75565b5b6020028101906102fb91906112a1565b604051610309929190611338565b908152602001604051809103902060405160200161032e989796959493929190611707565b604051602081830303815290604052600560048154811061035257610351610f75565b5b9060005260206000200160405160200161036c9190611813565b60405160208183030381529060405260405160200161038f959493929190611871565b6040516020818303038152906040529050809150509392505050565b60606105d7610424856002600981106103c7576103c6610f75565b5b6020028101906103d791906112a1565b876003600981106103eb576103ea610f75565b5b6020028101906103fb91906112a1565b8960086009811061040f5761040e610f75565b5b60200281019061041f91906112a1565b6105e0565b6104988660046009811061043b5761043a610f75565b5b60200281019061044b91906112a1565b8860056009811061045f5761045e610f75565b5b60200281019061046f91906112a1565b8a60066009811061048357610482610f75565b5b60200281019061049391906112a1565b610635565b610531876000600981106104af576104ae610f75565b5b6020028101906104bf91906112a1565b896001600981106104d3576104d2610f75565b5b6020028101906104e391906112a1565b8b6006600981106104f7576104f6610f75565b5b60200281019061050791906112a1565b8d60076009811061051b5761051a610f75565b5b60200281019061052b91906112a1565b8e61073b565b6105818860016009811061054857610547610f75565b5b60200281019061055891906112a1565b8a60076009811061056c5761056b610f75565b5b60200281019061057c91906112a1565b610989565b6105d28960016009811061059857610597610f75565b5b6020028101906105a891906112a1565b8b6007600981106105bc576105bb610f75565b5b6020028101906105cc91906112a1565b8b610b33565b610c2f565b90509392505050565b606084848888600d87876040516105f8929190611338565b908152602001604051809103902060405160200161061a959493929190611af6565b60405160208183030381529060405290509695505050505050565b60608686868686867fcae3132c4acb934bc8a5c772f8c705a3abd649863f689c11838778df34c77ecb600a8a8a604051610670929190611338565b908152602001604051809103902060405161068b9190611be0565b6040518091039020146106d3576040518060400160405280600381526020017f303030000000000000000000000000000000000000000000000000000000000081525061070a565b6040518060400160405280600681526020017f61346265343400000000000000000000000000000000000000000000000000008152505b604051602001610720979695949392919061212f565b60405160208183030381529060405290509695505050505050565b606089897fef8e6cc13e38bcfeef49bb09ff671d5d5703786b8da79966931752b107bf02a78a8a6040516107709291906121cf565b60405180910390201480156107855750834310155b6107ac576040516020016107989061220e565b604051602081830303815290604052610899565b7fcae3132c4acb934bc8a5c772f8c705a3abd649863f689c11838778df34c77ecb600a89896040516107df929190611338565b90815260200160405180910390206040516107fa9190611be0565b604051809103902014610842576040518060400160405280600381526020017f3030300000000000000000000000000000000000000000000000000000000000815250610879565b6040518060400160405280600681526020017f61346265343400000000000000000000000000000000000000000000000000008152505b604051602001610889919061232d565b6040516020818303038152906040525b7fc86a76bef700ce0bbdb50aa910820ae6db999fbd033477b56e6fd22d4d64afdc8b8b6040516108ca9291906121cf565b604051809103902014610912576040518060400160405280600381526020017f3030300000000000000000000000000000000000000000000000000000000000815250610958565b86868080601f016020809104026020016040519081016040528093929190818152602001838380828437600081840152601f19601f820116905080830192505050505050505b60405160200161096b949392919061243e565b60405160208183030381529060405290509998505050505050505050565b60607f76546d76799d8df96a425e612058ea7e8f5d74e389821f05c9697de7d34c66b785856040516109bc9291906121cf565b604051809103902014610a04576040518060400160405280600381526020017f3030300000000000000000000000000000000000000000000000000000000000815250610a4a565b82828080601f016020809104026020016040519081016040528093929190818152602001838380828437600081840152601f19601f820116905080830192505050505050505b7fef8e6cc13e38bcfeef49bb09ff671d5d5703786b8da79966931752b107bf02a78686604051610a7b9291906121cf565b604051809103902014610ac3576040518060400160405280600381526020017f3030300000000000000000000000000000000000000000000000000000000000815250610b09565b83838080601f016020809104026020016040519081016040528093929190818152602001838380828437600081840152601f19601f820116905080830192505050505050505b604051602001610b1a929190612690565b6040516020818303038152906040529050949350505050565b60607f79a2855eacbcabda4809908362cdb51f2a92bb6dcb261cb803cbb9d46658d6378686604051610b669291906121cf565b604051809103902014610bae576040518060400160405280600981526020017f233030303b233030300000000000000000000000000000000000000000000000815250610c05565b81431015610be15783838585604051602001610bcd9493929190612762565b604051602081830303815290604052610c04565b8383604051602001610bf49291906127ec565b6040516020818303038152906040525b5b604051602001610c159190612a09565b604051602081830303815290604052905095945050505050565b6060610c618686868686604051602001610c4d959493929190611871565b604051602081830303815290604052610c6c565b905095945050505050565b60606000825103610c8e57604051806020016040528060008152509050610ddf565b6000604051806060016040528060408152602001612ba56040913990506000600360028551610cbd9190612a65565b610cc79190612aea565b6004610cd39190612b1b565b90506000602082610ce49190612a65565b67ffffffffffffffff811115610cfd57610cfc612b75565b5b6040519080825280601f01601f191660200182016040528015610d2f5781602001600182028036833780820191505090505b509050818152600183018586518101602084015b81831015610d9e576003830192508251603f8160121c168501518253600182019150603f81600c1c168501518253600182019150603f8160061c168501518253600182019150603f8116850151825360018201915050610d43565b600389510660018114610db85760028114610dc857610dd3565b613d3d60f01b6002830352610dd3565b603d60f81b60018303525b50505050508093505050505b919050565b600080fd5b600080fd5b600080fd5b600081905082602060090282011115610e0f57610e0e610dee565b5b92915050565b6000819050919050565b610e2881610e15565b8114610e3357600080fd5b50565b600081359050610e4581610e1f565b92915050565b600080600060608486031215610e6457610e63610de4565b5b600084013567ffffffffffffffff811115610e8257610e81610de9565b5b610e8e86828701610df3565b9350506020610e9f86828701610e36565b9250506040610eb086828701610e36565b9150509250925092565b600081519050919050565b600082825260208201905092915050565b60005b83811015610ef4578082015181840152602081019050610ed9565b83811115610f03576000848401525b50505050565b6000601f19601f8301169050919050565b6000610f2582610eba565b610f2f8185610ec5565b9350610f3f818560208601610ed6565b610f4881610f09565b840191505092915050565b60006020820190508181036000830152610f6d8184610f1a565b905092915050565b7f4e487b7100000000000000000000000000000000000000000000000000000000600052603260045260246000fd5b7f4e487b7100000000000000000000000000000000000000000000000000000000600052602260045260246000fd5b60006002820490506001821680610feb57607f821691505b602082108103610ffe57610ffd610fa4565b5b50919050565b600081905092915050565b60008190508160005260206000209050919050565b6000815461103181610fd3565b61103b8186611004565b9450600182166000811461105657600181146110675761109a565b60ff1983168652818601935061109a565b6110708561100f565b60005b8381101561109257815481890152600182019150602081019050611073565b838801955050505b50505092915050565b7f426c6f636b20436c6f636b000000000000000000000000000000000000000000600082015250565b60006110d9600b83611004565b91506110e4826110a3565b600b82019050919050565b60006110fb8284611024565b9150611106826110cc565b915081905092915050565b7f457468657265756d20646f65736e2774206b6e6f772074696d652c206974206b60008201527f6e6f777320626c6f636b732e205468697320636c6f636b20726570726573656e60208201527f747320746861742e204974206861732034206d6f6465733a20636c6f636b2c2060408201527f6368726f6e6f67726170682c2074696d657220616e6420616c61726d2e20412060608201527f66756c6c79206f6e636861696e2070726f6a65637420627920536d617274436f60808201527f6e74726172742e0000000000000000000000000000000000000000000000000060a082015250565b600061120560a783611004565b915061121082611111565b60a782019050919050565b60006112278284611024565b9150611232826111f8565b915081905092915050565b600061124882610eba565b6112528185611004565b9350611262818560208601610ed6565b80840191505092915050565b600061127a8285611024565b9150611286828461123d565b91508190509392505050565b600080fd5b600080fd5b600080fd5b600080833560016020038436030381126112be576112bd611292565b5b80840192508235915067ffffffffffffffff8211156112e0576112df611297565b5b6020830192506001820236038313156112fc576112fb61129c565b5b509250929050565b82818337600083830152505050565b600061131f8385611004565b935061132c838584611304565b82840190509392505050565b6000611345828486611313565b91508190509392505050565b7f7b2274726169745f74797065223a202257616c6c7061706572222c202276616c60008201527f7565223a22000000000000000000000000000000000000000000000000000000602082015250565b60006113ad602583611004565b91506113b882611351565b602582019050919050565b7f227d2c0000000000000000000000000000000000000000000000000000000000600082015250565b60006113f9600383611004565b9150611404826113c3565b600382019050919050565b7f7b2274726169745f74797065223a202244617974696d65222c202276616c756560008201527f223a220000000000000000000000000000000000000000000000000000000000602082015250565b600061146b602383611004565b91506114768261140f565b602382019050919050565b7f7b2274726169745f74797065223a20224672616d65222c202276616c7565223a60008201527f2200000000000000000000000000000000000000000000000000000000000000602082015250565b60006114dd602183611004565b91506114e882611481565b602182019050919050565b7f7b2274726169745f74797065223a2022436c6f636b20636f6c6f72222c20227660008201527f616c7565223a2200000000000000000000000000000000000000000000000000602082015250565b600061154f602783611004565b915061155a826114f3565b602782019050919050565b7f7b2274726169745f74797065223a202253637265656e20636f6c6f72222c202260008201527f76616c7565223a22000000000000000000000000000000000000000000000000602082015250565b60006115c1602883611004565b91506115cc82611565565b602882019050919050565b7f7b2274726169745f74797065223a2022536861646f77222c202276616c75652260008201527f3a22000000000000000000000000000000000000000000000000000000000000602082015250565b6000611633602283611004565b915061163e826115d7565b602282019050919050565b7f7b2274726169745f74797065223a20224c454420636f6c6f72222c202276616c60008201527f7565223a22000000000000000000000000000000000000000000000000000000602082015250565b60006116a5602583611004565b91506116b082611649565b602582019050919050565b7f227d000000000000000000000000000000000000000000000000000000000000600082015250565b60006116f1600283611004565b91506116fc826116bb565b600282019050919050565b6000611713828b611024565b915061171e826113a0565b915061172a828a611024565b9150611735826113ec565b91506117408261145e565b915061174c8289611024565b9150611757826113ec565b9150611762826114d0565b915061176e8288611024565b9150611779826113ec565b915061178482611542565b91506117908287611024565b915061179b826113ec565b91506117a6826115b4565b91506117b28286611024565b91506117bd826113ec565b91506117c882611626565b91506117d48285611024565b91506117df826113ec565b91506117ea82611698565b91506117f68284611024565b9150611801826116e4565b91508190509998505050505050505050565b600061181f8284611024565b915081905092915050565b600081519050919050565b600081905092915050565b600061184b8261182a565b6118558185611835565b9350611865818560208601610ed6565b80840191505092915050565b600061187d8288611840565b91506118898287611840565b91506118958286611840565b91506118a18285611840565b91506118ad8284611840565b91508190509695505050505050565b7f3c73766720786d6c6e733d22687474703a2f2f7777772e77332e6f72672f323060008201527f30302f737667222076696577426f783d2230203020313038302031303830222060208201527f77696474683d223130383022206865696768743d2231303830223e203c64656660408201527f733e203c7374796c653e202e636c732d387b66696c6c3a236666663b666f6e7460608201527f2d66616d696c793a48656c7665746963613b666f6e742d73697a653a32322e3760808201527f3670787d202e636c732d397b66696c6c3a233030303b666f6e742d66616d696c60a08201527f793a56657264616e613b666f6e742d73697a653a383070787d202e636c732d3260c08201527f7b6f7061636974793a2e0000000000000000000000000000000000000000000060e082015250565b60006119fc60ea83611004565b9150611a07826118bc565b60ea82019050919050565b7f3b7d3c2f7374796c653e203c2f646566733e203c70617468207374796c653d2260008201527f66696c6c3a230000000000000000000000000000000000000000000000000000602082015250565b6000611a6e602683611004565b9150611a7982611a12565b602682019050919050565b7f222069643d226261636b67726f756e642220643d224d3020306831303830763160008201527f30383048307a222f3e203c673e00000000000000000000000000000000000000602082015250565b6000611ae0602d83611004565b9150611aeb82611a84565b602d82019050919050565b6000611b01826119ef565b9150611b0e828789611313565b9150611b1982611a61565b9150611b26828587611313565b9150611b3182611ad3565b9150611b3d8284611024565b91508190509695505050505050565b60008190508160005260206000209050919050565b60008154611b6e81610fd3565b611b788186611835565b94506001821660008114611b935760018114611ba457611bd7565b60ff19831686528186019350611bd7565b611bad85611b4c565b60005b83811015611bcf57815481890152600182019150602081019050611bb0565b838801955050505b50505092915050565b6000611bec8284611b61565b915081905092915050565b7f3c7061746820783d223230332220793d22343232222077696474683d2236373360008201527f22206865696768743d22323336222072783d223331222072793d22333122207360208201527f74796c653d2266696c6c3a230000000000000000000000000000000000000000604082015250565b6000611c79604c83611004565b9150611c8482611bf7565b604c82019050919050565b7f2220643d224d323334203432312e3832483834352e35354133312e313420333160008201527f2e313420302030203120383737203435322e3936563632372e30354133312e3160208201527f34203331203020302031203834352e3535203635382e3139483233342e34364160408201527f33312e31342033312e3134203020302031203230332e3332203632372e30355660608201527f3435322e39364133312e31342033312e3134203020302031203233342e34362060808201527f3432312e38327a222f3e203c7061746820783d223230332220793d223432332260a08201527f2077696474683d2236373422206865696768743d22323335222072783d22323660c08201527f222072793d22323622207374796c653d227374726f6b652d6d697465726c696d60e08201527f69743a31303b66696c6c3a6e6f6e653b7374726f6b653a23000000000000000061010082015250565b6000611df761011883611004565b9150611e0282611c8f565b61011882019050919050565b7f3b7374726f6b652d77696474683a382e343470782220643d224d3232392e343860008201527f203432322e3535483835302e35314132362e33392032362e333920302030203160208201527f203837362e39203434382e3934563633312e30364132362e33392032362e333960408201527f203020302031203835302e3531203635372e3435483232392e34384132362e3360608201527f392032362e3339203020302031203230332e3039203633312e3036563434382e60808201527f39344132362e33392032362e3339203020302031203232392e3438203432322e60a08201527f35357a222f3e203c7061746820783d223235302220793d22343630222077696460c08201527f74683d2235373922206865696768743d22313237222072783d2231352220727960e08201527f3d22313522207374796c653d2266696c6c3a230000000000000000000000000061010082015250565b6000611f7661011383611004565b9150611f8182611e0e565b61011382019050919050565b7f2220643d224d3236352e3534203435392e3636483831342e34374131352e313760008201527f2031352e3137203020302031203832392e3634203437342e3833563537312e3760208201527f4131352e31372031352e3137203020302031203831342e3437203538362e383760408201527f483236352e35344131352e31372031352e3137203020302031203235302e333760608201527f203537312e37563437342e38334131352e31372031352e31372030203020312060808201527f3236352e3534203435392e36367a222f3e203c74657874207472616e73666f7260a08201527f6d3d227472616e736c617465283238352035353529223e203c747370616e206360c08201527f6c6173733d22636c732d3922207374796c653d2266696c6c3a2300000000000060e082015250565b60006120cd60fa83611004565b91506120d882611f8d565b60fa82019050919050565b7f2220783d22302220793d2230223e000000000000000000000000000000000000600082015250565b6000612119600e83611004565b9150612124826120e3565b600e82019050919050565b600061213a82611c6c565b915061214782898b611313565b915061215282611de9565b915061215f828789611313565b915061216a82611f68565b9150612177828587611313565b9150612182826120c0565b915061218e828461123d565b91506121998261210c565b915081905098975050505050505050565b60006121b68385611835565b93506121c3838584611304565b82840190509392505050565b60006121dc8284866121aa565b91508190509392505050565b50565b60006121f8600083611004565b9150612203826121e8565b600082019050919050565b6000612219826121eb565b9150819050919050565b7f3c616e696d617465206174747269627574654e616d653d2266696c6c2220766160008201527f6c7565733d222300000000000000000000000000000000000000000000000000602082015250565b600061227f602783611004565b915061228a82612223565b602782019050919050565b7f3b7472616e73706172656e742220626567696e3d22307322206475723d22327360008201527f222063616c634d6f64653d2264697363726574652220726570656174436f756e60208201527f743d22696e646566696e697465222f3e00000000000000000000000000000000604082015250565b6000612317605083611004565b915061232282612295565b605082019050919050565b600061233882612272565b9150612344828461123d565b915061234f8261230a565b915081905092915050565b7f3c2f747370616e3e203c2f746578743e203c7465787420636c6173733d22636c60008201527f732d3822207472616e73666f726d3d227472616e736c6174652832373820363260208201527f3629223e203c747370616e20783d22302220793d2230223e436c6f636b3c2f7460408201527f7370616e3e203c2f746578743e203c636972636c652063783d2232353922206360608201527f793d223631382220723d22382e35222066696c6c3d2223000000000000000000608082015250565b6000612428609783611004565b91506124338261235a565b609782019050919050565b600061244b828688611313565b91506124578285611840565b91506124628261241b565b915061246e828461123d565b915081905095945050505050565b7f22207374726f6b653d222364616666663422207374726f6b652d77696474683d60008201527f22312e357078222f3e203c7465787420636c6173733d22636c732d382220747260208201527f616e73666f726d3d227472616e736c617465283432352036323629223e203c7460408201527f7370616e20783d22302220793d2230223e4368726f6e6f3c2f747370616e3e2060608201527f3c2f746578743e203c636972636c652063783d22343038222063793d2236313860808201527f2220723d22382e35222066696c6c3d222300000000000000000000000000000060a082015250565b600061257060b183611004565b915061257b8261247c565b60b182019050919050565b7f22207374726f6b653d222364616666663422207374726f6b652d77696474683d60008201527f22312e357078222f3e203c7465787420636c6173733d22636c732d382220747260208201527f616e73666f726d3d227472616e736c617465283539302036323629223e203c7460408201527f7370616e20783d22302220793d2230223e54696d65723c2f747370616e3e203c60608201527f2f746578743e203c636972636c652063783d22353730222063793d223631382260808201527f20723d22382e35222066696c6c3d22230000000000000000000000000000000060a082015250565b600061267a60b083611004565b915061268582612586565b60b082019050919050565b600061269b82612563565b91506126a7828561123d565b91506126b28261266d565b91506126be828461123d565b91508190509392505050565b7f2300000000000000000000000000000000000000000000000000000000000000600082015250565b6000612700600183611004565b915061270b826126ca565b600182019050919050565b7f3b23000000000000000000000000000000000000000000000000000000000000600082015250565b600061274c600283611004565b915061275782612716565b600282019050919050565b600061276d826126f3565b915061277a828688611313565b91506127858261273f565b9150612792828486611313565b915081905095945050505050565b7f3b23303030000000000000000000000000000000000000000000000000000000600082015250565b60006127d6600583611004565b91506127e1826127a0565b600582019050919050565b60006127f7826126f3565b9150612804828486611313565b915061280f826127c9565b91508190509392505050565b7f22207374726f6b653d222364616666663422207374726f6b652d77696474683d60008201527f22312e357078222f3e203c7465787420636c6173733d22636c732d382220747260208201527f616e73666f726d3d227472616e736c617465283735382036323629223e203c7460408201527f7370616e20783d22302220793d2230223e416c61726d3c2f747370616e3e203c60608201527f2f746578743e203c636972636c652063783d22373339222063793d223631382260808201527f20723d22382e3522207374726f6b653d222364616666663422207374726f6b6560a08201527f2d77696474683d22312e357078223e203c616e696d617465206174747269627560c08201527f74654e616d653d2266696c6c222076616c7565733d220000000000000000000060e082015250565b600061295b60f683611004565b91506129668261281b565b60f682019050919050565b7f2220626567696e3d22307322206475723d223273222063616c634d6f64653d2260008201527f64697363726574652220726570656174436f756e743d22696e646566696e697460208201527f65222f3e203c2f636972636c653e203c2f673e203c2f7376673e202000000000604082015250565b60006129f3605c83611004565b91506129fe82612971565b605c82019050919050565b6000612a148261294e565b9150612a20828461123d565b9150612a2b826129e6565b915081905092915050565b7f4e487b7100000000000000000000000000000000000000000000000000000000600052601160045260246000fd5b6000612a7082610e15565b9150612a7b83610e15565b9250827fffffffffffffffffffffffffffffffffffffffffffffffffffffffffffffffff03821115612ab057612aaf612a36565b5b828201905092915050565b7f4e487b7100000000000000000000000000000000000000000000000000000000600052601260045260246000fd5b6000612af582610e15565b9150612b0083610e15565b925082612b1057612b0f612abb565b5b828204905092915050565b6000612b2682610e15565b9150612b3183610e15565b9250817fffffffffffffffffffffffffffffffffffffffffffffffffffffffffffffffff0483118215151615612b6a57612b69612a36565b5b828202905092915050565b7f4e487b7100000000000000000000000000000000000000000000000000000000600052604160045260246000fdfe4142434445464748494a4b4c4d4e4f505152535455565758595a6162636465666768696a6b6c6d6e6f707172737475767778797a303132333435363738392b2fa2646970667358221220926f4016ef0503e5737cd56d47260ce8b35200dea326d5690975d7bcec615da764736f6c634300080d0033222c2022637265617465645f6279223a22536d617274636f6e7472617274222c2022696d616765223a22646174613a696d6167652f7376672b786d6c3b6261736536342c3c706f6c79676f6e20636c6173733d22636c732d322220706f696e74733d223230362e3137203432362e3336203837332e3438203635332e393620313336322e35203136342e3935203931352e3034202d3238322e3531203230362e3137203432362e3336222f3e3c706f6c79676f6e20636c6173733d22636c732d322220706f696e74733d223230362e3139203635332e3632203837332e3439203432362e303320313336322e3531203931352e3034203931352e303520313336322e35203230362e3139203635332e3632222f3e3c706f6c79676f6e20636c6173733d22636c732d322220706f696e74733d223837332e3831203432362e3335203230362e3531203635332e3935202d3238322e3531203136342e3933203136342e3935202d3238322e3532203837332e3831203432362e3335222f3e3c706f6c79676f6e20636c6173733d22636c732d322220706f696e74733d223837332e38203635332e3634203230362e3439203432362e3034202d3238322e3532203931352e3035203136342e393320313336322e3531203837332e38203635332e3634222f3e646174613a6170706c69636174696f6e2f6a736f6e3b757466382c7b226e616d65223a22",
  "immutableReferences": {},
  "source": "// SPDX-License-Identifier: MIT\n\npragma solidity >= 0.8.13;\n\nimport 'base64-sol/base64.sol';\n\n\ncontract ClockURI{\n\n\n    bytes[5] private _svgComponents;\n    string[] private _uriComponents;\n\n    mapping(string => string) _colorNames;\n    mapping(string => string) _opacitiesNames;\n    mapping(string => string) _clockOutlinesNames;\n    mapping(string => string) _clockFillsNames;\n    mapping(string => string) _screenColorsNames;\n    mapping(string => string) _ledColorsNames;\n    mapping(string => string) _shadowNames;\n    mapping(string => string) _shadowValues;\n\n    string [4] _shadows;\n\n     constructor () {\n        _uriComponents = [\n            'data:application/json;utf8,{\"name\":\"',\n            '\", \"description\":\"',\n            '\", \"created_by\":\"Smartcontrart\", \"image\":\"data:image/svg+xml;base64,',\n            '\", \"attributes\":[',\n            ']}'];\n\n        _colorNames['ffd097'] ='Orange'; \n        _colorNames['f8a7a7'] ='Pink'; \n        _colorNames['c3d5fc'] ='Blue'; \n        _colorNames['a0e3a1'] ='Green'; \n        _colorNames['f0eb5b'] = 'Yellow';\n        _colorNames['Yellow'] = 'Grey';\n\n        _opacitiesNames['0'] = 'Indoors';\n        _opacitiesNames['3'] = 'Cloudy';\n        _opacitiesNames['6'] = 'Sunny';\n\n        _clockOutlinesNames['fff'] = 'White';\n        _clockOutlinesNames['000'] = 'Black';\n\n        _clockFillsNames['752125'] = 'Brown';\n        _clockFillsNames['c90000'] = 'Red';\n        _clockFillsNames['00a331'] = 'Green';\n        _clockFillsNames['7202b3'] = 'Purple';\n\n        _screenColorsNames['cccccc'] = 'Grey';\n        _screenColorsNames['fff'] = 'White';\n        _screenColorsNames['1e1e1e'] = 'Black';\n\n        _ledColorsNames['ff000c'] = 'Red';\n        _ledColorsNames['008700'] = 'Green';\n        _ledColorsNames['0074b8'] = 'Blue';\n        _ledColorsNames['ffa200'] = 'Orange';\n        \n        _shadowValues['0'] = '<polygon class=\"cls-2\" points=\"873.8 653.64 206.49 426.04 -282.52 915.05 164.93 1362.51 873.8 653.64\"/>';\n        _shadowValues['1'] = '<polygon class=\"cls-2\" points=\"206.17 426.36 873.48 653.96 1362.5 164.95 915.04 -282.51 206.17 426.36\"/>';\n        _shadowValues['2'] = '<polygon class=\"cls-2\" points=\"873.81 426.35 206.51 653.95 -282.51 164.93 164.95 -282.52 873.81 426.35\"/>';\n        _shadowValues['3'] = '<polygon class=\"cls-2\" points=\"206.19 653.62 873.49 426.03 1362.51 915.04 915.05 1362.5 206.19 653.62\"/>';\n\n        _shadowNames['0'] = 'Dawn';\n        _shadowNames['1'] = 'Afternoon';\n        _shadowNames['2'] = 'Morning';\n        _shadowNames['3'] = 'Dusk';\n    }\n    \n    function getSVGPart1(\n        string calldata wallColor, \n        string calldata opacity,\n        string calldata shadow\n    ) internal view returns(bytes memory svgPart1) {\n        return (\n            abi.encodePacked(\n                '<svg xmlns=\"http://www.w3.org/2000/svg\" viewBox=\"0 0 1080 1080\" width=\"1080\" height=\"1080\"> <defs> <style> .cls-8{fill:#fff;font-family:Helvetica;font-size:22.76px} .cls-9{fill:#000;font-family:Verdana;font-size:80px} .cls-2{opacity:.',\n                opacity,\n                ';}</style> </defs> <path style=\"fill:#',\n                wallColor,\n                '\" id=\"background\" d=\"M0 0h1080v1080H0z\"/> <g>',\n                _shadowValues[shadow]\n            )\n        );\n    }\n\n    function getSVGPart2(        \n        string calldata clockFill, \n        string calldata clockFrame, \n        string calldata clockScreen\n    ) internal view returns(bytes memory svgPart2){\n        return(\n            abi.encodePacked(\n                '<path x=\"203\" y=\"422\" width=\"673\" height=\"236\" rx=\"31\" ry=\"31\" style=\"fill:#',\n                clockFill,\n                '\" d=\"M234 421.82H845.55A31.14 31.14 0 0 1 877 452.96V627.05A31.14 31 0 0 1 845.55 658.19H234.46A31.14 31.14 0 0 1 203.32 627.05V452.96A31.14 31.14 0 0 1 234.46 421.82z\"/> <path x=\"203\" y=\"423\" width=\"674\" height=\"235\" rx=\"26\" ry=\"26\" style=\"stroke-miterlimit:10;fill:none;stroke:#',\n                clockFrame,\n                ';stroke-width:8.44px\" d=\"M229.48 422.55H850.51A26.39 26.39 0 0 1 876.9 448.94V631.06A26.39 26.39 0 0 1 850.51 657.45H229.48A26.39 26.39 0 0 1 203.09 631.06V448.94A26.39 26.39 0 0 1 229.48 422.55z\"/> <path x=\"250\" y=\"460\" width=\"579\" height=\"127\" rx=\"15\" ry=\"15\" style=\"fill:#',\n                clockScreen,\n                '\" d=\"M265.54 459.66H814.47A15.17 15.17 0 0 1 829.64 474.83V571.7A15.17 15.17 0 0 1 814.47 586.87H265.54A15.17 15.17 0 0 1 250.37 571.7V474.83A15.17 15.17 0 0 1 265.54 459.66z\"/> <text transform=\"translate(285 555)\"> <tspan class=\"cls-9\" style=\"fill:#',\n                keccak256(bytes(_screenColorsNames[clockScreen])) == keccak256('Black')  ? 'a4be44' : '000',\n                '\" x=\"0\" y=\"0\">'\n            )\n        );\n    }\n\n    function getSVGPart3(        \n        string calldata value, \n        string calldata mode,\n        string calldata clockScreen,\n        string calldata ledColor,\n        uint timer\n    ) internal view returns(bytes memory svgPart3){\n        return(\n            abi.encodePacked(\n                value,\n                keccak256(bytes(mode)) == keccak256('Timer') && block.number >= timer ? abi.encodePacked('<animate attributeName=\"fill\" values=\"#', keccak256(bytes(_screenColorsNames[clockScreen])) == keccak256('Black')  ? 'a4be44' : '000',';transparent\" begin=\"0s\" dur=\"2s\" calcMode=\"discrete\" repeatCount=\"indefinite\"/>') :abi.encodePacked(''),\n                '</tspan> </text> <text class=\"cls-8\" transform=\"translate(278 626)\"> <tspan x=\"0\" y=\"0\">Clock</tspan> </text> <circle cx=\"259\" cy=\"618\" r=\"8.5\" fill=\"#',\n                keccak256(bytes(mode)) == keccak256('Clock') ? ledColor : '000'\n            )\n        );\n    }\n\n    function getSVGPart4(        \n        string calldata mode,\n        string calldata ledColor\n    ) internal pure returns(bytes memory svgPart4){\n        return(\n            abi.encodePacked(\n                '\" stroke=\"#dafff4\" stroke-width=\"1.5px\"/> <text class=\"cls-8\" transform=\"translate(425 626)\"> <tspan x=\"0\" y=\"0\">Chrono</tspan> </text> <circle cx=\"408\" cy=\"618\" r=\"8.5\" fill=\"#',\n                keccak256(bytes(mode)) == keccak256('Chrono') ? ledColor : '000',\n                '\" stroke=\"#dafff4\" stroke-width=\"1.5px\"/> <text class=\"cls-8\" transform=\"translate(590 626)\"> <tspan x=\"0\" y=\"0\">Timer</tspan> </text> <circle cx=\"570\" cy=\"618\" r=\"8.5\" fill=\"#',\n                keccak256(bytes(mode)) == keccak256('Timer') ? ledColor : '000'\n            )\n        );\n    }\n\n    function getSVGPart5(        \n        string calldata mode,\n        string calldata ledColor,\n        uint alarm\n    ) internal view returns(bytes memory svgPart5){\n        return(\n            abi.encodePacked(\n                '\" stroke=\"#dafff4\" stroke-width=\"1.5px\"/> <text class=\"cls-8\" transform=\"translate(758 626)\"> <tspan x=\"0\" y=\"0\">Alarm</tspan> </text> <circle cx=\"739\" cy=\"618\" r=\"8.5\" stroke=\"#dafff4\" stroke-width=\"1.5px\"> <animate attributeName=\"fill\" values=\"',\n                keccak256(bytes(mode)) == keccak256('Alarm') ? block.number >= alarm ? string(abi.encodePacked('#',ledColor,';#000')) : string(abi.encodePacked('#', ledColor,';#', ledColor)) : '#000;#000',\n                '\" begin=\"0s\" dur=\"2s\" calcMode=\"discrete\" repeatCount=\"indefinite\"/> </circle> </g> </svg>  '\n            )\n        );\n    }\n\n    function buildSVG(\n        string [9] calldata clockCustomization,\n        uint timer,\n        uint alarm\n    ) internal view returns(string memory svg){\n        svg = assembleSVGComponents(\n            getSVGPart1(clockCustomization[2], clockCustomization[3], clockCustomization[8]),\n            getSVGPart2(clockCustomization[4], clockCustomization[5], clockCustomization[6]),\n            getSVGPart3(clockCustomization[0], clockCustomization[1], clockCustomization[6], clockCustomization[7], timer),\n            getSVGPart4(clockCustomization[1], clockCustomization[7]),\n            getSVGPart5(clockCustomization[1], clockCustomization[7], alarm)\n        );\n        return svg;\n    }\n    \n    function assembleSVGComponents(\n        bytes memory part1,\n        bytes memory part2,\n        bytes memory part3,\n        bytes memory part4,\n        bytes memory part5\n    ) internal pure returns(string memory svg){\n        return(\n            Base64.encode(\n                bytes(\n                   abi.encodePacked(\n                        part1,\n                        part2,\n                        part3,\n                        part4,\n                        part5\n                   )\n                )\n            )\n        );\n    }\n\n    function buildURI( \n        string [9] calldata clockCustomization,\n        uint timer,\n        uint alarm\n    )public view returns (string memory){\n\n        bytes memory byteString = abi.encodePacked(\n            abi.encodePacked(_uriComponents[0], \"Block Clock\"),\n            abi.encodePacked(_uriComponents[1], \"Ethereum doesn't know time, it knows blocks. This clock represents that. It has 4 modes: clock, chronograph, timer and alarm. A fully onchain project by SmartContrart.\"),\n            abi.encodePacked(_uriComponents[2], buildSVG(\n                clockCustomization,\n                timer,\n                alarm)),\n            abi.encodePacked(_uriComponents[3], \n                '{\"trait_type\": \"Wallpaper\", \"value\":\"', _colorNames[clockCustomization[2]], '\"},',\n                '{\"trait_type\": \"Daytime\", \"value\":\"', _opacitiesNames[clockCustomization[3]], '\"},',\n                '{\"trait_type\": \"Frame\", \"value\":\"', _clockOutlinesNames[clockCustomization[5]], '\"},',\n                '{\"trait_type\": \"Clock color\", \"value\":\"', _clockFillsNames[clockCustomization[4]], '\"},',\n                '{\"trait_type\": \"Screen color\", \"value\":\"', _screenColorsNames[clockCustomization[6]], '\"},',\n                '{\"trait_type\": \"Shadow\", \"value\":\"', _shadowNames[clockCustomization[8]], '\"},',\n                '{\"trait_type\": \"LED color\", \"value\":\"', _ledColorsNames[clockCustomization[7]], '\"}'\n            ),\n            abi.encodePacked(_uriComponents[4])\n        );\n        return string(byteString);\n    }\n\n}",
  "sourcePath": "/Users/bct/Documents/Dev/NFT_dev/Clock/contracts/ClockURI.sol",
  "compiler": {
    "name": "solc",
    "version": "0.8.13+commit.abaa5c0e.Emscripten.clang"
  },
  "schemaVersion": "3.4.4",
  "updatedAt": "2022-09-07T21:35:00.410Z",
  "devdoc": {
    "kind": "dev",
    "methods": {},
    "version": 1
  },
  "userdoc": {
    "kind": "user",
    "methods": {},
    "version": 1
  }
}