{
  "contractName": "ClockMint",
  "abi": [
    {
      "inputs": [],
      "stateMutability": "nonpayable",
      "type": "constructor"
    },
    {
      "inputs": [],
      "name": "_clockAddress",
      "outputs": [
        {
          "internalType": "address",
          "name": "",
          "type": "address"
        }
      ],
      "stateMutability": "view",
      "type": "function"
    },
    {
      "inputs": [
        {
          "internalType": "address",
          "name": "",
          "type": "address"
        }
      ],
      "name": "_isAdmin",
      "outputs": [
        {
          "internalType": "bool",
          "name": "",
          "type": "bool"
        }
      ],
      "stateMutability": "view",
      "type": "function"
    },
    {
      "inputs": [],
      "name": "_publicMintOpened",
      "outputs": [
        {
          "internalType": "bool",
          "name": "",
          "type": "bool"
        }
      ],
      "stateMutability": "view",
      "type": "function"
    },
    {
      "inputs": [],
      "name": "_publicMintPrice",
      "outputs": [
        {
          "internalType": "uint256",
          "name": "",
          "type": "uint256"
        }
      ],
      "stateMutability": "view",
      "type": "function"
    },
    {
      "inputs": [],
      "name": "_recipient",
      "outputs": [
        {
          "internalType": "address",
          "name": "",
          "type": "address"
        }
      ],
      "stateMutability": "view",
      "type": "function"
    },
    {
      "inputs": [
        {
          "internalType": "address",
          "name": "clockAddress",
          "type": "address"
        }
      ],
      "name": "setClockAddress",
      "outputs": [],
      "stateMutability": "nonpayable",
      "type": "function"
    },
    {
      "inputs": [
        {
          "internalType": "address",
          "name": "recipient",
          "type": "address"
        }
      ],
      "name": "setRecipient",
      "outputs": [],
      "stateMutability": "nonpayable",
      "type": "function"
    },
    {
      "inputs": [],
      "name": "togglePublicMintOpened",
      "outputs": [],
      "stateMutability": "nonpayable",
      "type": "function"
    },
    {
      "inputs": [],
      "name": "publicMint",
      "outputs": [],
      "stateMutability": "payable",
      "type": "function"
    }
  ],
  "bytecode": "0x608060405266470de4df82000060005534801561001b57600080fd5b506001600360003373ffffffffffffffffffffffffffffffffffffffff1673ffffffffffffffffffffffffffffffffffffffff16815260200190815260200160002060006101000a81548160ff02191690831515021790555033600260006101000a81548173ffffffffffffffffffffffffffffffffffffffff021916908373ffffffffffffffffffffffffffffffffffffffff1602179055506109ff806100c46000396000f3fe6080604052600436106100865760003560e01c8063b551e36611610059578063b551e36614610114578063b7994c1a1461013f578063d4cca5f114610168578063dfa9ea7f14610193578063e9e43f1f146101aa57610086565b806326092b831461008b5780633bbed4a01461009557806383584542146100be578063acb4f941146100e9575b600080fd5b6100936101e7565b005b3480156100a157600080fd5b506100bc60048036038101906100b791906106b5565b610375565b005b3480156100ca57600080fd5b506100d3610445565b6040516100e091906106f1565b60405180910390f35b3480156100f557600080fd5b506100fe61046b565b60405161010b9190610727565b60405180910390f35b34801561012057600080fd5b5061012961047e565b604051610136919061075b565b60405180910390f35b34801561014b57600080fd5b50610166600480360381019061016191906106b5565b610484565b005b34801561017457600080fd5b5061017d610554565b60405161018a91906106f1565b60405180910390f35b34801561019f57600080fd5b506101a861057a565b005b3480156101b657600080fd5b506101d160048036038101906101cc91906106b5565b610632565b6040516101de9190610727565b60405180910390f35b600260149054906101000a900460ff16610236576040517f08c379a000000000000000000000000000000000000000000000000000000000815260040161022d906107d3565b60405180910390fd5b60005434101561027b576040517f08c379a00000000000000000000000000000000000000000000000000000000081526004016102729061083f565b60405180910390fd5b600260009054906101000a900473ffffffffffffffffffffffffffffffffffffffff1673ffffffffffffffffffffffffffffffffffffffff166108fc6000549081150290604051600060405180830381858888f193505050501580156102e5573d6000803e3d6000fd5b50600160009054906101000a900473ffffffffffffffffffffffffffffffffffffffff1673ffffffffffffffffffffffffffffffffffffffff16639769dc0e336040518263ffffffff1660e01b815260040161034191906106f1565b600060405180830381600087803b15801561035b57600080fd5b505af115801561036f573d6000803e3d6000fd5b50505050565b600360003373ffffffffffffffffffffffffffffffffffffffff1673ffffffffffffffffffffffffffffffffffffffff16815260200190815260200160002060009054906101000a900460ff16610401576040517f08c379a00000000000000000000000000000000000000000000000000000000081526004016103f8906108d1565b60405180910390fd5b80600260006101000a81548173ffffffffffffffffffffffffffffffffffffffff021916908373ffffffffffffffffffffffffffffffffffffffff16021790555050565b600160009054906101000a900473ffffffffffffffffffffffffffffffffffffffff1681565b600260149054906101000a900460ff1681565b60005481565b600360003373ffffffffffffffffffffffffffffffffffffffff1673ffffffffffffffffffffffffffffffffffffffff16815260200190815260200160002060009054906101000a900460ff16610510576040517f08c379a00000000000000000000000000000000000000000000000000000000081526004016105079061093d565b60405180910390fd5b80600160006101000a81548173ffffffffffffffffffffffffffffffffffffffff021916908373ffffffffffffffffffffffffffffffffffffffff16021790555050565b600260009054906101000a900473ffffffffffffffffffffffffffffffffffffffff1681565b600360003373ffffffffffffffffffffffffffffffffffffffff1673ffffffffffffffffffffffffffffffffffffffff16815260200190815260200160002060009054906101000a900460ff16610606576040517f08c379a00000000000000000000000000000000000000000000000000000000081526004016105fd906109a9565b60405180910390fd5b600260149054906101000a900460ff1615600260146101000a81548160ff021916908315150217905550565b60036020528060005260406000206000915054906101000a900460ff1681565b600080fd5b600073ffffffffffffffffffffffffffffffffffffffff82169050919050565b600061068282610657565b9050919050565b61069281610677565b811461069d57600080fd5b50565b6000813590506106af81610689565b92915050565b6000602082840312156106cb576106ca610652565b5b60006106d9848285016106a0565b91505092915050565b6106eb81610677565b82525050565b600060208201905061070660008301846106e2565b92915050565b60008115159050919050565b6107218161070c565b82525050565b600060208201905061073c6000830184610718565b92915050565b6000819050919050565b61075581610742565b82525050565b6000602082019050610770600083018461074c565b92915050565b600082825260208201905092915050565b7f4d696e7420636c6f736564000000000000000000000000000000000000000000600082015250565b60006107bd600b83610776565b91506107c882610787565b602082019050919050565b600060208201905081810360008301526107ec816107b0565b9050919050565b7f4e6f7420656e6f7567682066756e647300000000000000000000000000000000600082015250565b6000610829601083610776565b9150610834826107f3565b602082019050919050565b600060208201905081810360008301526108588161081c565b9050919050565b7f4f6e6c792041646d696e732063616e207365742074686520726563697069656e60008201527f7400000000000000000000000000000000000000000000000000000000000000602082015250565b60006108bb602183610776565b91506108c68261085f565b604082019050919050565b600060208201905081810360008301526108ea816108ae565b9050919050565b7f4f6e6c792041646d696e732063616e20736574204c7578416464726573730000600082015250565b6000610927601e83610776565b9150610932826108f1565b602082019050919050565b600060208201905081810360008301526109568161091a565b9050919050565b7f4f6e6c792041646d696e732063616e20746f67676c6520414c204d696e740000600082015250565b6000610993601e83610776565b915061099e8261095d565b602082019050919050565b600060208201905081810360008301526109c281610986565b905091905056fea2646970667358221220d76515c88f39b86da8e7dc4eb774b52f2cc0fa981c9631d35c47494c6fc0c27a64736f6c634300080d0033",
  "immutableReferences": {},
  "source": "// SPDX-License-Identifier: MIT\n\npragma solidity >= 0.8.13;\n\nimport \"@openzeppelin/contracts/token/ERC721/IERC721.sol\";\nimport \"./Clock.sol\";\n\ncontract ClockMint{\n    uint256 public _publicMintPrice = 0.02  *10**18;\n\n    address public _clockAddress;\n    address public _recipient;\n\n    bool public _publicMintOpened;\n\n    mapping(address => bool) public _isAdmin;\n\n    constructor(){\n        _isAdmin[msg.sender]=true;\n        _recipient = msg.sender;\n    }\n    \n\n    function setClockAddress(address clockAddress) external{\n        require(_isAdmin[msg.sender], \"Only Admins can set LuxAddress\");\n        _clockAddress = clockAddress;\n    }\n\n    function setRecipient(address recipient) external{\n        require(_isAdmin[msg.sender], \"Only Admins can set the recipient\");\n        _recipient = recipient;\n    }\n\n    function togglePublicMintOpened() external{\n        require(_isAdmin[msg.sender], \"Only Admins can toggle AL Mint\");\n        _publicMintOpened = !_publicMintOpened;\n    }\n\n\n    function publicMint(\n    ) external payable{\n        require(_publicMintOpened, \"Mint closed\");\n        require(msg.value >= _publicMintPrice, \"Not enough funds\");\n        payable(_recipient).transfer(_publicMintPrice);\n        Clock(_clockAddress).adminMint(msg.sender);\n    }\n\n\n}",
  "sourcePath": "/Users/bct/Documents/Dev/NFT_dev/Clock/contracts/ClockMint.sol",
  "compiler": {
    "name": "solc",
    "version": "0.8.13+commit.abaa5c0e.Emscripten.clang"
  },
  "schemaVersion": "3.4.4",
  "updatedAt": "2022-09-07T21:35:00.406Z",
  "devdoc": {
    "kind": "dev",
    "methods": {},
    "version": 1
  },
  "userdoc": {
    "kind": "user",
    "methods": {},
    "version": 1
  }
}